:104A6500407661722C00434F4F4C004943455F46E9
:104A75004C5553480053455454494E4700414456FC
:104A8500414E43455F53455454494E4700504153A9
:104A950053574F52445F434F4E4649470049444C94
:104AA50045004E2F41006D6F646500677265656E48
:104AB5005F6D696E007265645F6D696E0072656C2D
:104AC500617931004F4E004F46460072656C617941
:104AD500320072656C617933002D2D2D00646F6E87
:104AE50000796573006E6F0050694E0050696E0065
:104AF5004C6F5000624163004C6F63004F4E3200B3
:104B0500204F500020434C004F4E3100205374007D
:104B150068644600204F4E0064454600456E6400BB
:104B250020534C004C6364004C45440068434600E8
:084B35002D434600682D2D0000
:10400C00420303000042024100004202380000500B
:10401C00030B3F065B4F666D7D077F6F777C395EC8
:10402C00797148029A10203040506070005702ECB1
:10403C00FF6EF3FF6EF9FF6EFF0000000000000042
:10404C0000000000000000570426FF6F05FF6F0BF7
:10405C00FF6F1100000000000000000000000000D5
:10406C00004202EA00004202C2000042000A0000C4
:10407C00410230004102B5014102D9004102D10098
:10408C0041052B02C103C10441024F004100100045
:10409C004104010041022A00410240004102CF00CC
:1040AC004102D000410306004102E2004104250018
:1040BC004102370043041194848541023F024103BD
:1040CC00FE00410249004102A500410420005802B3
:1040DC00540000000100000001000000010000007D
:1040EC00010000005A00000001460292010101018A
:1040FC000001460407000000000000410247004197
:10410C0002AC01410253004102CE004103FD0041CB
:10411C0002AB004402D5000000004A04413F065B9C
:10412C004F666D7D077F6F41024A004202AE000070
:10413C0042022703084402C600000000410233007B
:10414C00010900010800010A004202E81E1E41009C
:10415C00070041000800410009014102A400410090
:0A416C0013004102AD0041022F00D4
:04699A007FF47E0107
:10699E00E4FDFCC3ED9FEC9E5017E4FBFA00000BE8
:1069AE00BB00010ABA03F6BBE8F30DBD00010C8073
:0169BE00E2F6
:0169BF0022B5
:10692200E0FBA3E0FAA3E0F9900003122445898278
:0B6932008A83E4FF12249F7F0A7E008E
:0E693D00EF1F70011E144E6004000080F32254
:106C3400E4FF900538E0FEEFC39E500EED122126CE
:0A6C44000F740129F9E43AFA80E820
:016C4E002223
:0B647300900591EBF0A3EAF0A3E9F024
:10647E00E4FF900597E0FEEFC39E5035900594E043
:10648E00FBA3E0FAA3E0F91220E0FE900591E0FBF9
:10649E00A3E0FAA3E0F9EE1221260F900592E4751F
:1064AE00F0011221C1900595E475F0011221C18011
:0164BE00C11C
:0164BF0022BA
:10005E00A2AF9200C2AF75C7AA75C755E4F59F75DA
:0C006E00C7AA75C755759F80A20092AF0D
:01007A002263
:106D91008FAFECF5A7AF058FA675C7AA75C7554389
:056DA100A401AFAE22C9
:104CD300A2AFE433900534F0C2AFA3E591F0E4F55D
:104CE3009175C7AA75C755439F017D30FC7F041298
:104CF3006D918F0B0D7F04126D918F0CE50B25E0E9
:104D0300FFE433FEE50C5401FDEF4DFBAA06FF540F
:104D1300C0F9EF543FFE74F22BFB74FF3AFA7D01A6
:104D23007F0C126D91EF644B600AEF64526005EFE4
:104D330064537020EEC3940F5012E964406009E994
:104D430064806004E9B4C00C74F2800274FC2BFB31
:104D530074FF3AFAEAC313EB13F50BEB5401FFE5C7
:104D63000C54FE4FF50C75C7AA75C755850B847592
:104D7300C7AA75C755850C8575C7AA75C755539FAF
:104D8300FE5387EF900535E0F591900534E024FF5D
:024D930092AFDD
:014D950022FB
:106C4F00E4FF900539E0FEEFC39E500EED122126B2
:0A6C5F000F740129F9E43AFA80E805
:016C69002208
:105FA000E4FF90058BEBF0A3EAF0A3E9F0900587FE
:105FB000E0F9A3E0FAA3E090058EC9F0A3EAF0A30C
:105FC000E9F090058AE0FEEFC39E503590058EE023
:105FD000FBA3E0FAA3E0F91220E0FE90058BE0FBC2
:105FE000A3E0FAA3E0F9EE1221260F90058CE475E8
:105FF000F0011221C190058FE475F0011221C180DA
:01600000C1DE
:01600100227C
:106AE100E4FF9005A3E0FEEFC39E5014EDF582E4B0
:106AF1008582F01221ED0F740229F9E43AFA80E25D
:016B01002271
:106D65008FAFECF5A7EDF5A675C7AA75C75543A472
:056D750001AEAEAF0607
:016D7A0022F6
:106D7B008FAFECF5A7EDF5A6AF038FAE75C7AA7570
:066D8B00C75543A40122DC
:106DBB00A2AF9201C2AF75C7AA75C75543AA40A22D
:036DCB000192AF83
:016DCE0022A2
:105C2900A2AF9200E4C2AF75C7AA75C755439F01D9
:105C39007D04FC7FC0126D65EF54F064F07030751F
:105C4900C7AA75C75543A5047B0F7FE1126D7B7504
:105C5900C7AA75C75553A5FBE59F20E6FB75C7AADB
:105C690075C755759F0075C7AA75C755439F807538
:105C7900C7AA75C755539FFE75C7AA75C75543AAC5
:105C890007126DBBAFAA74FF60FA75C7AA75C7552D
:075C990043AA80A20092AFB4
:015CA00022E1
:046EDB008F828E8391
:036EDF00E493FF3A
:016EE200228D
:10460B0090053DEEF0A3EFF0900541EBF0A3EAF03F
:03461B00A3E9F020
:10461E00C202900546E4F0A3F0A3F0A3F0A3F0A22B
:10462E00AF9202C2AF900541E0FBA3E0FAA3E0F91E
:10463E004A6011900546EBF0A3EAF0A3E9F090056D
:10464E0030EB800E900530E0F9A3E0FAA3E0900580
:10465E0046C9F0A3EAF0A3E9F0900544E0FEA3E01A
:10466E00FF4E6008900303EEF0A3EFF090053DE0DF
:10467E00FEA3E0FF4E6011ED4C600DC3EF9DFFEE0B
:10468E009C900241F0A3EFF0E4900549F0A3F09066
:10469E000303E0FEA3E0FF900549E0FCA3E0FDC3A9
:1046AE009FEC9E5038900242E02DFF900241E03C7C
:1046BE00FE126EDB900546E0FBA3E0FAA3E0F9EFF5
:1046CE0012212690054AE004F07006900549E00498
:1046DE00F0900547E475F0011221C180B2A202925A
:0146EE00AF1C
:0146EF0022A8
:10661800AB07AA06ED75F080A42BFBE5F03AFAEB80
:10662800F5A6AE02EEF5A775AEFF75C7AA75C755F4
:10663800439F0175C7AA75C75543A50175AF227554
:08664800C7AA75C75543A40160
:016650002227
:1043DF00C201900530E0F9A3E0FAA3E0900538C9D7
:1043EF00F0A3EAF0A3E9F0900303E0FCA3E0FDAE35
:1043FF00047807CEC313CE13D8F9F9E490053BF038
:10440F00A3F0A2AF9201C2AFED4C70030244FB09BF
:10441F00E490053BF0A3F0E9FF90053BE0FCA3E03F
:10442F00FDC39FEC9400501B900241E0FEA3E0FF00
:10443F0012661890053CE004F070DC90053BE00438
:10444F00F080D475C7AA75C755439F0175C7AA7564
:10445F00C75543A50175AF21E490053BF0A3F0903C
:10446F000303E0FEA3E0FF90053BE0FCA3E0FDC3E8
:10447F009FEC9E504D900241E0FAA3E0FB2DF5A674
:10448F00EB2DEA3CF5A7900538E0FBA3E0FAA3E09B
:10449F00F91220E0F5AE75C7AA75C75543A401758B
:1044AF00C7AA75C75543AA4090053CE004F07006B3
:1044BF0090053BE004F0900539E475F0011221C13D
:1044CF00809D75C7AA75C75553A5FE75C7AA75C731
:1044DF0055539FFE7B007A007900E4900544F0A3CA
:0C44EF00F0FDFCFFFE12460BA20192AF94
:0144FB00229E
:104B3D00E4FBF9FA900534F0A3F0A2AF9200C2AFF6
:104B4D0075C7AA75C755439F017D0DFC7F04126D76
:104B5D0065AA07EA54F0FB64806003EB7051EA54D8
:104B6D000FFA7D0C7C007F04126D65A907E975F0C5
:104B7D0010A4FFEA2FFEEC35F0900534F0A3CEF033
:104B8D00900534E0FEA3E0FF7D0312215AEF780279
:104B9D00CEC313CE13D8F9FF900238EEF0A3EFF089
:104BAD00EBB4800BE024DFF0900238E034FFF0EB43
:104BBD00649070407D0EFC7F04126D65A9070D7F1A
:104BCD0004126D65AA07EA540FFAE975F010A42ACC
:104BDD00FFEC35F0FE900534F0A3EFF07D031221CC
:104BED005AEF7802CEC313CE13D8F9FF900238EEE8
:104BFD00F0A3EFF075C7AA75C755539FFEA200929B
:014C0D00AFF7
:014C0E002283
:0E000300AF0A74272FF582E43402F583E0FF84
:0A001100EF540F42E844F052E822D9
:0B6EAA0030000443E1012253E1FE220E
:056F1700C2EFD2EE22E2
:106B2300120011AF058F95126F1730EFFDE4F59545
:106B3300AFC3EF75F010A4FFAEF0ADC2EF4DFF226F
:05628B0090059BEDF001
:10629000E490059EF090059CE0FF120011A3E0F54C
:1062A00095E4A3F090059BE0FF90059EE0C39F500E
:1062B00029126F1730EFFDAFC3EF75F010A4FFADDB
:1062C000C2EF4DFFE5F08FF01221ED90059EE00446
:0D62D000F0740229F9E43AFA80CAE4F59569
:0162DD00229E
:1051BC00E4900578F0A3F07B017A05797A90059C50
:1051CC007408F0A37402F07D0512628B7F02EF2548
:1051DC00E0247AF582E43405F583E0FCA3E0FD904D
:1051EC000579E02DF0900578E03CF00FEFB405DE8A
:1051FC00900578E0FEA3E0FF7C007D0312216C900B
:10520C000578EEF0A3EFF0900238E0FEA3E0FFE4A7
:10521C00FCFD9005741223DCE4FF7E10FDFC900570
:10522C0074E0F8A3E0F9A3E0FAA3E0FB12220CC0AF
:10523C0006C007900578E0FEA3E0FBAA06E4F9F8A7
:10524C00D007D0061222979005741223DC900574B7
:07525C00A3A3E0FEA3E0FFA5
:015263002228
:0861DC00900539EEF0A3EFF08D
:1061E400900238E0FEA3E0FFE4FCFD90053B12239F
:1061F400DCE4FF7E10FDFC90053BE0F8A3E0F9A38E
:10620400E0FAA3E0FB12220CC006C007900539E0B7
:10621400FEA3E0FBAA06E4F9F8D007D00612229701
:1062240090053B1223DC90053BA3A3E0FEA3E0FF13
:016234002247
:0F6E3900900418E0FCA3E0FDA3E0FEA3E0FF221D
:0A5AB3007B017F647E007D007C0013
:0F5ABD00900539EBF0A3EAF0A3E9F0A31223DC84
:105ACC00126E399005401223DC900539E0FBA3E0FF
:105ADC00FAA3E0F9122387900540E0FCA3E0FDA3B4
:105AEC00E0FEA3E0C39BFFEE9AFEED99FDEC98FC63
:105AFC0090053CE0F8A3E0F9A3E0FAA3E0FBD31295
:105B0C002329501E900540E0FCA3E0FDA3E0FEA37A
:105B1C00E0FF900539E0FBA3E0FAA3E0F912236D56
:035B2C00D322C3BE
:015B2F002253
:0C6DF600900420740CF07B017A02792BD1
:066E0200126E3902236D3F
:1047CF00EFC394304013EFD39439500D74DB2FF5B2
:1047DF0082E43402F583E0FF22EF1224754859205A
:1047EF00485C2D485F41486242486843486B4448E3
:1047FF006E45487146487D4948834C48894E488FDD
:10480F004F489550489B5248A45348A15448A75627
:10481F0048AA59485F61486262486563486B6448BB
:10482F006E65487166487467487768487A6948804A
:10483F006C48866E488C6F48927048987248A47383
:10484F00489E7448AA79000048597F00227F402271
:10485F007F77227F7C227F58227F39227F5E227FC3
:10486F0079227F71227F6F227F74227F30227F30E7
:10487F00227F30227F38227F54227F37227F5C2293
:10488F007F3F227F73227F73227F50227F77227F89
:0E489F0078227F31227F6D227F3E227F6E22A3
:106C6A0075803F75B1C475B2087590D775B36875EC
:0B6C7A00B485E4F5B0F5AC75AD012267
:066EF300EF24FF92922241
:066EF900EF24FF9291223C
:066EFF00A291E433FF2222
:066F0500EF24FF92902230
:066F0B00EF24FF9280223A
:066F1100A280E433FF2220
:106DCF00438E1053890F438910758DBF758B28D251
:046DDF00ABD28E2283
:03001B00026383FA
:10638300C0E0C0F0C083C082C0D075D000C000C0E0
:1063930004C005C006C007758DBF758B289004180F
:1063A300E0FCA3E0FDA3E0FEA3E02401FFE43EFE46
:1063B300E43DFDE43CFC9004181223DCD007D00636
:1063C300D005D004D000D0D0D082D083D0F0D0E09C
:0163D3003297
:03005B00025D152E
:105D1500C0E0C0F0C083C082C0D075D000C005C04F
:105D250006C007C2EFAFC3EF75F010A4FFAEF0AD2C
:105D3500C2EF4DFFAD0AEDC454F0246DF582E43495
:105D450002F583AD0975F002ED122419EEF0A3EF0B
:105D5500F00509AF09EFC394084013750900050A5A
:105D6500AF0AEFD394014003750A001200037508CA
:105D750001D007D006D005D0D0D082D083D0F0D0C6
:025D8500E0320A
:0F6E480090011CA3E0FAA3E0F5828A8302249F45
:0C6E9E0090011CEBF0A3EAF0A3E9F02245
:105B3000C201E4900534F0900534E0FFC3940350B3
:105B40006B126E489201900534E0FF24D2F582E496
:105B50003402F583E0FEA201E433FD6E603774E8A1
:105B60002DF582E43402F583E0FE74002FF582E423
:105B70003400F583E004F0C39E4029A201E433FF22
:105B8000900534E0FE24D2F582E43402F583EFF090
:105B900074002E8006900534E02400F582E4340081
:0C5BA000F583E4F0900534E004F0808B05
:015BAC0022D6
:1044FC00125B307B017A0279DE7F32125AB792005E
:10450C00E4FF30005BEF25E025E024B7F582E434CE
:10451C0002F583E0C394025011EF25E025E024B7A7
:10452C00F582E43402F583E004F0EF25E025E02485
:10453C00B6F582E43402F583E06025EF25E025E052
:10454C0024B8F582E43402F583E0C394FF5011EFF4
:10455C0025E025E024B8F582E43402F583E004F08C
:10456C0074D22FF582E43402F583E06036EF25E057
:10457C0025E024B7F582E43402F583E0B40222EF9F
:10458C0025E025E024B6F582E43402F5837401F0CD
:10459C00EF25E025E024B9F582E43402F5837401BB
:1045AC00F08042EF25E025E024B8F582E43402F5F2
:1045BC0083E4F0EF25E025E024B6F582E43402F53F
:1045CC0083E06031EF25E025E024B6F582E4340287
:1045DC00F583E4F0EF25E025E024B9F582E434021C
:1045EC00F5837402F0EF25E025E024B7F582E4347E
:0E45FC0002F583E4F00FEF6403600302450E46
:01460A00228D
:1069C000EF25E025E024B9F582E43402F583E0B454
:1069D0000112EF25E025E024B9F582E43402F583C5
:0669E000E4F0D322C32203
:1069E600EF25E025E024B9F582E43402F583E0B42E
:1069F6000212EF25E025E024B9F582E43402F5839E
:066A0600E4F0D322C322DC
:046C85007D3C7F02D1
:106C8900EF25E025E024B8F582E43402F583E0C37A
:076C99009D4002D322C3223B
:1064C00090024A7428F0900338E0FEA3E0FF7C00BD
:0F64D0007D0A12215A900235EEF0A3EFF07F0300
:1064DF00EFC394035016EF75F004A424B6F97402B9
:1064EF0035F0FA7B019005397404800B7B017A0239
:0E64FF0079B6900539740CF0E4FD126C4F2252
:0D6E840074D22FF582E43402F583E013226E
:106CA000E4FFFEEE25E025E024B6F582E43402F5AB
:0A6CB00083E060010F0EEEB403E96B
:016CBA0022B7
:046F1C00EF24FF223D
:096EC0007BFF7A6F791C026E9EC3
:106BC1007B017A0279B6900539740CF0E4FD126C00
:0E6BD1004F7A0279D29005387403F0026C34CA
:1064250090056BEBF0A3EAF0A3E9F012242589822D
:106435008A837F0112249F90056BE0FBA3E0FAA3FA
:10644500E0F990000312244589828A837F0112694D
:106455003690056B12692290056BE0FBA3E0FAA369
:0E646500E0F912242589828A83E4FF02249F35
:08623500E0FBA3E0FAA3E0F98D
:10623D0090056BEBF0A3EAF0A3E9F0122425898217
:10624D008A83E4FF12249F90056B12692290056BDF
:10625D00E0FBA3E0FAA3E0F912242589828A837F6B
:10626D000112693690056BE0FBA3E0FAA3E0F9900B
:0E627D00000312244589828A837F0102249F38
:0D5BAD0090053BE0FBA3E0FAA3E0F97D01C9
:0B5BBA00900570EBF0A3EAF0A3E9F007
:105BC500E4A3F0AF05900570E0FBA3E0FAA3E0F9CC
:105BD50090000312244589828A8312249F900570C0
:105BE500E0FBA3E0FAA3E0F912242589828A837FEA
:105BF50001126936900570E0FBA3E0FAA3E0F99085
:105C0500000612244512249B900573EFF090057051
:105C1500E0FBA3E0FAA3E0F9122425126930900510
:035C250073E0FF2A
:015C28002259
:0B66510090053BEBF0A3EAF0A3E9F09A
:10665C00E4A3F0A3F090053EE0FF25E0F0E0FEC0DF
:10666C0006125BADD0E04F90053EF0A3E004F0E0E5
:0D667C00C3940840E0125BAD90053EE0FFC6
:0166890022EE
:0862DE00E0FBA3E0FAA3E0F9E4
:0E62E60090056BEBF0A3EAF0A3E9F0A3EDF056
:1062F400C201E4A3F090056BE0FBA3E0FAA3E0F98C
:10630400A3E0FFC41313135401FD125BBA90056E8E
:10631400E0FF25E0F0A3E004F0E0C3940840D69049
:0C632400056B125BB0EF24FF9201A20198
:01633000224A
:0B5A3200900566EBF0A3EAF0A3E9F09A
:105A3D0090000D1220F9900569F0E4A3F090056631
:105A4D00E0FBA3E0FAA3E0F990000C1220F9FF901F
:105A5D00056AE0C39F504E126425900566E0FBA3D6
:105A6D00E0FAA3E0F9A3E0FD1262E6900566E0FB23
:105A7D00A3E0FAA3E0240FF9E43AFA90056AE07E78
:105A8D000029F9EE3AFA1220E0FD9005661262E067
:105A9D00900569E024FEF090056612623590056A66
:055AAD00E004F0809808
:015AB20022D1
:1053B2007B017A0279EC90053B7439F0A3743FF0DB
:0653C2007438A3F07D0326
:0E53C800900537EBF0A3EAF0A3E9F0A3EDF0B7
:1053D6009005637401F0A37405F0A3743BF0E4FF39
:1053E60090053AE0FEEFC39E5033900563E0FBA3C1
:1053F600E475F0011221D7A9F0FA1220E0FE90051B
:1054060037E0FBA3E0FAA3E0240FF9E43AFAEF7CD5
:105416000029F9EC3AFAEE1221260F80C3900563B3
:10542600E4F0A3F0A3F0900537E0FBA3E0FAA3E0D5
:10543600240AF9E43AFA1220E044011221269005E2
:1054460037125ED4900537E0FBA3E0FAA3E0F90239
:025456005A32C8
:0E5F3B00900539EBF0A3EAF0A3E9F0A3EDF036
:105F49009005657401F0A37405F0A3743DF0E4FFB6
:105F590090053CE0FEEFC39E5033900565E0FBA33E
:105F6900E475F0011221D7A9F0FA1220E0FE90059C
:105F790039E0FBA3E0FAA3E02413F9E43AFAEF7C51
:105F89000029F9EC3AFAEE1221260F80C390056533
:065F9900E4F0A3F0A3F008
:015F9F0022DF
:106D2000E92413F9E43AFA7E00E92DF9EE3AFA1271
:076D300020E044800221264F
:104F0B0090053D74FFF0A3744AF0A374DEF07B01AF
:044F1B007A04792675
:0B4F1F0090053AEBF0A3EAF0A3E9F0E4
:104F2A0090000C1220F914900540F090053DE0FB2A
:104F3A00A3E0FAA3E0F91220E0FF6041900540E007
:104F4A00C36480948040361247CF90053AE0FBA3B1
:104F5A00E0FAA3E02413F9E43AFA900540E0FE14DB
:104F6A00F0EEFD3395E0FCE92DF9EA3CFAEF122167
:104F7A002690053EE475F0011221C180AE900540ED
:104F8A00E0C364809480402890053AE0FBA3E0FAED
:104F9A00A3E02413F9E43AFA900540E0FF14F0EF95
:104FAA003395E0FEE92FF9EA3EFAE412212680CD94
:014FBA0022D4
:085ED400E0FBA3E0FAA3E0F9F2
:105EDC00900566EBF0A3EAF0A3E9F0900566E0FB11
:105EEC00A3E0FAA3E0F91264259005667D481262DE
:105EFC00DE900566E0FBA3E0FAA3E0F9401C9000FD
:105F0C000A1220F9FD1262E6900566E0FBA3E0FAA6
:105F1C00A3E0F990000974018004900009E41221B7
:0F5F2C0038900566E0FBA3E0FAA3E0F902623DBE
:0E66FA007B01E0249AF582E43402F583E0FD92
:10670800900535EBF0A3EAF0A3E9F0900535E0FB3E
:10671800A3E0FAA3E0240BF9E43AFA1220E0540FBC
:076728001221264D0221267B
:0F6E5700E9240BF9E43AFA1220E0440102212663
:0F6E6600E9240BF9E43AFA1220E054FE02212647
:10697300900534EBF0A3EAF0A3E9F0900534E0FBD3
:10698300A3E0FAA3E0240BF9E43AFA1220E054FE60
:076993001221264D0221260E
:0A56C6007B01900539746CF07D0340
:1056D000900535EBF0A3EAF0A3E9F0A3EDF07E002E
:1056E0007F047D00900535E0FBA3E0FAA3E0240FE2
:1056F000F9E43AFA1224A17E007F047DFF9005357B
:10570000E0FBA3E0FAA3E02413F9E43AFA1224A19F
:105710007E007F057D00900535E0FBA3E0FAA3E065
:105720002409F9E43AFA1224A1900538E0FF900523
:1057300035E0FBA3E0FAA3E0F990000CEF1221386A
:10574000900539E090000D12213890000B74011281
:0D575000213890000A7401122138025EDC3D
:105E6600900538EBF0A3EAF0A3E9F0900538E0FBE3
:105E7600A3E0FAA3E0F990000EE41221381264259B
:105E86009005387D491262DE900538E0FBA3E0FA02
:105E9600A3E0F990000940197401122138126651E5
:105EA600900538E0FBA3E0FAA3E0F990000EEF803E
:105EB60001E4122138900538126235900538E0FB6E
:0E5EC600A3E0FAA3E0F990000E1220F9FF22EB
:086EE30090000E1220F9FF22BD
:096EC9009000091220F924FF22B7
:0B526400900538EBF0A3EAF0A3E9F09E
:10526F00C200E4A3F0900538E0FBA3E0FAA3E0F955
:10527F0090000C1220F9FF90053BE0FEC39F506A8F
:10528F00E92413F9E43AFAEEFF7E0029F9EE3AFA2F
:10529F001220E0FD900538A3E0FAA3E0240FF9E413
:1052AF003AFAE92FF9EE3AFA1220E06D60339005E1
:1052BF0038A3E0FAA3E02413F9E43AFAA3E029F9BA
:1052CF00EE3AFA1220E0FD900538A3E0FAA3E024AD
:1052DF000FF9E43AFAE92FF9EE3AFAED122126D254
:1052EF000090053BE004F002527430000E90053838
:0B52FF00E0FBA3E0FAA3E0F9125A3232
:01530A002280
:106CBB0090000B1220F9FF90000A1220F96F600A66
:0B6CCB0090000AEF122138125EDC225C
:066002007B017A047926FF
:10600800900535EBF0A3EAF0A3E9F0900535E0FB45
:10601800A3E0FAA3E0F99000091220F9601F125ECC
:1060280066900535E0FBA3E0FAA3E0F9126CBB909B
:106038000535E0FBA3E0FAA3E0F9025264900535C8
:10604800125ED4900535E0FBA3E0FAA3E0F99000D6
:0A605800091220F96003125A3222E7
:1046F00090052BE075F008A42421F582E43403F53D
:1047000083A3A3E0FEA3E0FDAC067B017A0279EC73
:10471000900538EBF0A3EAF0A3E9F0A3ECF0A3EDE9
:01472000F0A8
:10472100E4A3F090053BE0FEA3E0FF7C007D0A12CC
:10473100216C740B2DF58274033CF583E0FF900529
:1047410038E0FBA3E0FAA3E02413F9E43AFA900578
:104751003DE0FE04F0EE7C0029F9EC3AFAEF12217B
:104761002690053BE0FEA3E0FF7D0A12216C900537
:104771003BEEF0A3EFF0900538E0FBA3E0FAA3E0F5
:10478100F990000C1220F9FF90053DE0C39F500AFB
:1047910090053BE07002A3E07089900538E0FBA32F
:1047A100E0FAA3E0F990000C1220F9FF90053DE03A
:1047B100C39F5019E92413F9E43AFAE0FF04F07EAB
:0D47C10000E92FF9EE3AFAE412212680CD2E
:0147CE0022C8
:0A66C300FDF09002C4E0FEA3E0FF2A
:0466CD00AB07AA0667
:1066D100ED6AFAE4FDEA30E70FEB25E0FFEA336407
:1066E10010FAEF6421FB8007EB25E0FBEA33FA0D9A
:0866F100EDB408E1AE02AF03B5
:0166F900227E
:06694B00AC06AD07E0FF01
:10695100900232E0C3E494015011E0FE04F0742788
:106961002EF582E43401F583EFF02290023E7401AA
:02697100F02212
:106B0200AD07AC06EF4E60188D828C83E493601063
:106B12000DED70010C14F582E493FF12695180E8C7
:016B22002250
:04606200AB07AA06D8
:10606600E4900542F07C007D0AAF03AE0212216C7B
:10607600ED2430FF900542E0FE04F0743D2EF582DB
:10608600E43405F583EFF07C007D0AAF03AE02121F
:10609600216CAA06AB07EB4A6009900542E0C3945F
:1060A6000540C2900542E0601214F0243DF582E4FA
:0B60B6003405F583E0FF12695180E81B
:0160C10022BC
:106D3700AB07AA067E4A7F65126B02AE02AF03124B
:076D47006B027F2C02695171
:106B430090053BECF0A3EDF0126D3790053BE0FEB2
:106B5300A3E0FF126B027F0D1269517F0A02695194
:106B630090053BECF0A3EDF0126D3790053BE0FE92
:106B7300A3E0FF1260627F0D1269517F0A0269511F
:1067990090052BE014601424FE601514601724FB87
:1067A9005018240970197E4A7F6B227E4A7F702215
:1067B9007E4A7F7A227E4A7F82227E4A7F92227E89
:0467C9004A7FA2223F
:106B8300E4FE740B2EF582E43403F583E0B50707C6
:0E6B9300EE1221267F01220EEEB40AE67F00EC
:016BA10022D1
:0B48AD0090053BEBF0A3EAF0A3E9F05C
:1048B800E4900543F0A3F0A3F0A304F0E4A3F0A36D
:1048C800F0900541F090053BE0FBA3E0FAA3E0F986
:1048D80090000C1220F9FF900541E0FEC39F4003B1
:1048E800024968E9240FF9E43AFAEE7E0029F9EE64
:1048F8003AFA1220E0FE700D900543E07002FF22A4
:104908009005448038900544E0700EAF067B017A2C
:10491800057942126B83EF70037F0022900542E015
:10492800FF7E00900545E0FCA3E0FD12215A9005AA
:1049380048E02FF0900547E03EF09005437401F001
:10494800900545E0FEA3E0FF7C007D0A12215A9005
:104958000545EEF0A3EFF0900541E004F00248CDE4
:10496800900543E07002FF22900547E0F9A3E0FFBD
:1049780090053EE0FBA3E0FAA3E0C98FF01221ED19
:024988007F01AD
:01498A00220A
:106A0C009003FDE0700690024AE060037F00229044
:106A1C00052BE0FF600864016004EFB403047F0100
:056A2C0080027F002242
:08655400900537EEF0A3EFF013
:10655C00126A0CEF602590053E7401F0A37405F0EF
:10656C00A37439F01248ADEF6011900537E0FEA32B
:10657C00E0FFA3E0FCA3E0FD026B63900537E0FEB7
:0A658C00A3E0FF7C4A7DA7126B43D9
:0165960022E2
:104E5900E4900232F090023EF0A2AF33FFC2AFAE4F
:104E690091E4F5912083047D0180027D0090053451
:104E7900EDF02097047D0180027D00900535EDF06D
:104E890020B0047D0180027D00900536EDF08E9101
:104E9900EF24FF92AF126799AC06AD077E4A7FAB4C
:104EA900126B437E4A7FB07B017A047926126554DE
:104EB9007E4A7FBA7B017A0279EC1265547E4A7F79
:104EC900C2900534E060067C4A7DC980047C4A7D35
:104ED900CC126B437E4A7FD0900535E060067C4A50
:104EE9007DC980047C4A7DCC126B437E4A7FD79072
:104EF9000536E060067C4A7DC980047C4A7DCC0287
:024F09006B43F8
:1067CD0090023EE0702D900232E060279002E7E0EB
:1067DD007021A2AF33FFC2AFAE917401F09002529F
:1067ED00F0E4F591C2F9900127E0F59A8E91EF242E
:0367FD00FF92AF59
:016800002275
:106A3100E4900299F0900423F0900406F090023162
:106A4100F0900250F074FF9002C4F0A3F0E49004BF
:056A51003EF0A3F0225D
:086CF000FF900537E03400FEBF
:106CF800AD07AC068D828C83E0FEA3E0FDEDFF229C
:10562E00900542EEF0A3EFF0F5828E83A3E0FFE447
:10563E00FCFDFE781012233AC004C005C006C00758
:10564E00900542E0FEA3E0F5828E83E0FFE4FCFDD0
:10565E00FE781812233AD003D002D001D000EF4BBF
:10566E00FFEE4AFEED49FDEC48FCC004C005C00645
:10567E00C007900542E0FEA3E0F5828E83A3A3E06F
:10568E00FFE4FCFDFE780812233AD003D002D001CD
:10569E00D000EF4BFBEE4AFAED49F9EC48F89005D5
:1056AE0042E0FEA3E0F5828E83A3A3A3E0FFEB4FBF
:0856BE00FFEAFEE9FDE8FC2211
:086BFC007BE77A037D017C00B8
:106C0400C3EF9DEE9C400AD3EF9BEE9A50037F01A5
:046C1400227F0022B9
:0829CA00900537EEF0A3EFF0D9
:1029D200F5828E83E0640260037F0022E490053971
:0B29E200F0900539E0FFC39404505D45
:1029ED00EF75F004A4FF900538E02401FD90053744
:1029FD00E03400CD2FFFED35F0FE12562E90053E42
:102A0D001223DCE4FFFEFDFC90053EE0F8A3E0F9A7
:102A1D00A3E0FAA3E0FBC31223296016E47FE77E4F
:102A2D0003FDFC90053EE0F8A3A3A3E0D3122329F8
:052A3D0040037F0022B0
:102A4200900539E004F08099900537E0FEA3E0FF9D
:102A52002411F582E43EF583E07003022B8DEF240E
:102A620012F582E43EF583E0D3945A4003022B8DA3
:102A7200900537A3E02413F582E43EF583E0D39476
:102A8200014003022B8DEF2414F582E43EF583E02E
:102A9200D394014003022B8D900537A3E02415F552
:102AA20082E43EF583E0D394014003022B8DEF24B0
:102AB20016F582E43EF583E0D394014003022B8DA8
:102AC200900537A3E02417F582E43EF583E0D39422
:102AD200014003022B8DEF2418FFE43EFE126CF836
:102AE200D3EF94E7EE94034003022B8D900537E079
:102AF200FEA3E0FF241AF582E43EF583E0D39407B7
:102B02004003022B8DEF241BF582E43EF583E0D3D4
:102B120094075077900537A3E0241CF582E43EF534
:102B220083E0D394015064EF241DF582E43EF583E3
:102B3200E0D394015055900537A3E0241EF582E4BA
:102B42003EF583E0D394035042EF241FF582E43E26
:102B5200F583E0D394015033900538E02420126CC1
:102B6200F0D3EF94E7EE94035021900538E024224D
:102B7200126CF0126BFCEF6012900538E024241204
:102B82006CF0D3EF945AEE940040037F0022E4905D
:102B92000539F0900539E0FFC394075026EF24264B
:102BA200FFE433FE900537E0FCA3E02FF582EC3E14
:102BB200F583E0D3940140037F0022900539E004BD
:102BC200F080D0E4900539F0900539E0FFC3940617
:102BD2004003022C8DEF25E0FFE433FE900538E040
:102BE20024ABFD900537E03400CD2FFFED3EFE1201
:102BF2006CF890053AEEF0A3EFF0900539E025E08D
:102C0200FFE433FE900538E024B7FD900537E03449
:102C120000CD2FFFED3EFE126CF890053CEEF0A3C6
:102C2200EFF0900539E0C39404501BA3E0FEA3E04B
:102C3200FF126BFCEF600CA3E0FEA3E0FF126C043A
:102C4200EF70277F002290053AE0FEA3E0FF7B5A57
:102C52007A00E4FDFC126C04EF600CA3E0FEA3E03A
:102C6200FF126C04EF70037F002290053CE0FEA38C
:102C7200E0FFD390053BE09F90053AE09E40037F42
:102C82000022900539E004F0022BCA900537E0FEDD
:102C9200A3E0FF24C3F582E43EF583E0D394015020
:102CA2000FEF24C4F582E43EF583E0D3945A400347
:102CB2007F0022900537E0FEA3E024D4F582E43EB3
:102CC200F583E0FE702F90053974C5F0900539E068
:102CD200FFD394D8501C900537E0FCA3E02FF58277
:102CE200E43CF583E060037F0022900539E004F0C4
:102CF20080DA7F0122EE64016003022D969005388E
:102D0200E024C5126CF0D3EF94E7EE940340030283
:102D12002D96900538E024C7126CF0D3EF94E7EEBD
:102D220094035070900538E024CC126CF0D3EF94E9
:102D3200E7EE9403505E900538E024D0126CF01256
:102D42006BFCEF604F900537E0FEA3E0FF24D2F565
:102D520082E43EF583E0D394015039EF24D3F58227
:102D6200E43EF583E0D39401502A900537A3E02492
:102D7200D5F582E43EF583E0D394015017EF24D6D3
:102D8200F582E43EF583E0FF7E007B637A00126CFD
:102D920004EF70037F0022900538E024C9126CF022
:102DA200EF4E704B900537E0FEA3E0FF24CBF58297
:102DB200E43EF583E07038EF24CEF582E43EF583FD
:102DC200E0702C900537A3E024CFF582E43EF58332
:102DD200E0701CEF24D7F582E43EF583E07010909A
:102DE2000537A3E024D8F582E43EF583E060037F53
:042DF20000227F013B
:012DF60022BA
:10668A00900423E0FF900406E0FDE490053AF0A3AD
:03669A00F07B0191
:10669D00900450EFF0900440EDF09002B0EBF090CC
:1066AD00053AE0900298F090053BE09002A3F0903F
:0666BD0000117401F0223F
:104C0F00900298E060047FD980027F00900534EF16
:104C1F00F074FFFDFCA37403F0A37420F0E4900282
:104C2F0032F090023EF07FA6126951900450E0FFDF
:104C3F001269517FFF7EFF900450E0FD1266CD9008
:104C4F00044012694BAF05AE04900440E0FD1266BC
:104C5F00CD9002B012694BAF05AE049002B0E0FDEB
:104C6F001266CDAC06AD07900534E0FF126951AF67
:104C7F0005AE04900534E0FD1266CDAC06AD07E439
:104C8F00F9900534E0FFE9C39F502FA3E0FEA3E0A6
:104C9F0029F582E43EF583E0FF126951AF05AE04BA
:104CAF00900535E0FCA3E029F582E43CF583E0FDB7
:104CBF001266CDAC06AD070980C7ECFF126951AF84
:044CCF000502695120
:105113009005357403F0A37420F0900421E0FFB4EC
:105123004710900400E0FD90053A7401F0E4A3F009
:105133008060900421E06453705B7E047F511229E8
:10514300CAEF7015900421E0FF900400E0FDE490A5
:10515300053AF0A3F07B02804FE4FF74512FF582F0
:10516300E43404F583E0FE900535E0FCA3E02FF57D
:1051730082E43CF583EEF00FEFB4D9DF1243DF9006
:105183000421E0FF900400E0FDE490053AF0A3045D
:10519300F0E4FB8013900421E0FF900400E0FDE4C1
:1051A30090053AF0A3F07B0112669DE4900422F08F
:0851B300900421F0900400F0CB
:0151BB0022D1
:103E9B00900535EFF0900422E0600302400B7B01AC
:103EAB007A0279A7126E02900299E0B407004003E0
:103EBB00024008903EC5F8282873023EDA023EF312
:103ECB00023F1D023F36023F80023FB6023FC890C1
:103EDB000535E064A5600302400B90029904F07471
:103EEB00FF9002C4F0A3F022900535E0FF64476019
:103EFB0008EF64536003024006900535E0900423FD
:103F0B001266C39002C4EEF0A3EFF0900299740214
:103F1B00F022900535E09004061266C39002C4EEC1
:103F2B00F0A3EFF09002997403F022900535E0FDB9
:103F3B009002311266C49002C4EEF0A3EFF090042D
:103F4B0023E0FFB44706900535E0700CEFB4530E39
:103F5B00900535E064D9600612668A024008E49049
:103F6B000250F0900535E060047F0480027F0590DD
:103F7B000299EFF022900535E0FD900250E0FF042E
:103F8B00F074512FF582E43404F583ED1266C4907E
:103F9B0002C4EEF0A3EFF0900231E0FF900250E08C
:103FAB00C39F405C9002997405F022900535E09018
:103FBB00043EF0A3E4F09002997406F022900535CC
:103FCB00E0FF90043EE0FEA3E04FFF90043EEEF0D6
:103FDB00FEA3EFF09002C4E0B5061DA3E0B50718F1
:103FEB00900423E0900421F0900406E0900400F08C
:103FFB009004227401F0800312668A8000126A31E9
:01400B002292
:1068C900E4FFA2AF33FEC2AF900248E0FD9002A6FA
:1068D900E06D6014E0FF04F0741C2FF582E43400CD
:0D68E900F583E01221267F01EE24FF92AF1F
:0168F600227F
:1063D400A2AFE433FFC2AF900012E0FEE4F0EF247A
:1063E400FF92AFAF06EE6003126A31900299E0604B
:1063F400107B017A0279A77FFA125AB75003126A06
:10640400317B017A0579341268C9EF600A9005344A
:10641400E0FF123E9B80EA900422E06003125113D5
:016424002255
:106C1800A2AFE433FFC2AF90031FE0FEE4F0EF241D
:0B6C2800FF92AFAF06EE600312005EAB
:016C3300223E
:10545800A2AFE433FBC2AFAA91E4F5914390405365
:10546800B3BF53B4BF43800443B10453B2FB759137
:1054780002E5A154F04405F5A1E4F59175C48075E1
:10548800C6FF75C5F775F850C2F9C2F875C48843E8
:105498009C019002E7F0900252F0900232F09002E4
:1054A8003EF0900248F09002A6F0900012F09004AE
:1054B80022F0900421F0900400F0900011F0900286
:1054C80098F09002A3F090026CF090031FF0126A1B
:1054D8003190041C1223E8000000009002A7122358
:1054E800E800000000AF028F91AF03EF24FF92AFF6
:0154F8002291
:10650D001263D4126C189002E7E0701D900011E038
:10651D006017124C0FE4900011F09002A3E090026E
:10652D006CF0E49002A3F0801A9002E7E070177B04
:10653D00017A04791C7FE87E03FDFC125ABD5006DA
:07654D00124E591267CD2226
:1068F700900248E004FE9002A6E0B5060790001259
:106907007401F022900248E0241CF582E43400F57B
:0A69170083EFF0AF06900248EEF0A7
:016921002253
:03007B00025D879C
:105D8700C0E0C083C082C0D075D000C005C006C0C7
:015D97000704
:085D9800AD9175910030F80D8A
:0D5DA000900533E59AF0C2F8E0FF1268F7B5
:105DAD0030F934C2F9900232E0FF900252E0C39F05
:105DBD005013E0FF04F074272FF582E43401F583CE
:105DCD00E0F59A80129002E7E4F090026CE0600733
:0B5DDD00E4F090031F04F0AF058F916D
:0F5DE800D007D006D005D0D0D082D083D0E03203
:0F36F200900534EBF0A3EAF0A3E9F0A31223DC78
:10370100C20190053FE0FF1269E640030237D49001
:103711000534E0FBA3E0FAA3E0F912234D9005374D
:10372100E0F8A3E0F9A3E0FAA3E0FBC312232940E8
:10373100030237B3900541E0FFE4FCFDFE9005373D
:10374100E0F8A3A3A3E02FFFEE3AFEED39FDEC383C
:10375100FC900534E0FBA3E0FAA3E0F9122387C350
:10376100122329402D900534E0FBA3E0FAA3E0F9F0
:10377100C00312234DC007900541E0FBD007C3EF02
:103781009BFFEE9400FEED9400FDEC9400FCD00351
:103791008019900537E0FCA3E0FDA3E0FEA3E0FF64
:1037A100900534E0FBA3E0FAA3E0F912236DD20106
:1037B100802130001E90053BE0FCA3E0FDA3E0FE6C
:1037C100A3E0FF900534E0FBA3E0FAA3E0F91223A4
:1037D1006DD20190053FE0FF7D0A126C895029905E
:1037E100053FE0FF25E025E024B8F582E43402F549
:1037F10083E024FEF0EF25E025E024B9F582E434EE
:1038010002F583E4F0023710900540E0FF1269E60B
:1038110040030238E1900534E0FBA3E0FAA3E0F9AC
:1038210012234D90053BE0F8A3E0F9A3E0FAA3E0F1
:10383100FBD312232950030238C0900541E0FB90CD
:10384100053BE0FCA3E0FDA3E0FEA3E09BFFEE94BB
:1038510000FEED9400FDEC9400FC900534E0FBA328
:10386100E0FAA3E0F9122387D312232950319005FE
:1038710034E0FBA3E0FAA3E0F9C003C002C00112E7
:103881002387900541E0FFE4FCFDFEEB2FFFEE3ABC
:10389100FEED39FDEC38FCD001D002D00380199047
:1038A100053BE0FCA3E0FDA3E0FEA3E0FF900534AF
:1038B100E0FBA3E0FAA3E0F912236DD201802130ED
:1038C100001E900537E0FCA3E0FDA3E0FEA3E0FFAE
:1038D100900534E0FBA3E0FAA3E0F912236DD201D5
:1038E100900540E0FF7D0A126C895029900540E067
:1038F100FF25E025E024B8F582E43402F583E024D5
:10390100FEF0EF25E025E024B9F582E43402F583E9
:07391100E4F0023816A201E8
:01391800228C
:046ABF00D200E4FF1E
:106AC300EF14600B0470167B017A0279EC80067B6D
:0E6AD300017A047926A200E433FD12697322D1
:0B680100A3A3E0FEA3E0FDAC06E4FF53
:10680C00900534ECF0A3EDF0EF14600B0470197BE1
:10681C00017A0279EC80067B017A047926900534A2
:09682C00E0FCA3E0FD124710227C
:0A54F90090000CA3A3E0FEA3E0FF67
:10550300900537EEF0A3EFF0900537E0FEA3E0FF40
:105513007C037DE812216C900537ECF0A3EDF0904D
:105523000537E0FAA3E0FB7C007D0AFFAE021221FF
:105533006C74412DF58274043CF583E090053DF0D5
:105543007C007D0AAF03AE0212216C7C007D0A123F
:10555300216C74412DF58274043CF583E090053E83
:10556300F0900537E0FEA3E0FF7C007D6412216C20
:105573007C007D0A12216C74412DF58274043CF584
:1055830083E090053FF07B017A0279EC7D03025FB3
:015593003BDC
:046331007BFFE4FF0B
:10633500900537EBF0A3EAF0A3E9F0EF1460200431
:10634500703B900537E0F9A3E0FAA3E090053DC95D
:10635500F0A3EAF0A3E9F07B017A0279EC801B90C7
:106365000537E0F9A3E0FAA3E090053DC9F0A3EAFB
:0E637500F0A3E9F07B017A047926124F1F2273
:0A530B00900534ECF0A3EDF0AB07C1
:10531500900534E0FEA3E0FF7C037DE812216C904C
:105325000534ECF0A3EDF0E4FA900534E0FEA3E0DB
:10533500FF7C007D0A12216C740B2DF58274033CF1
:10534500F583E0FF74362AF582E43405F583EFF042
:10535500900534E0FEA3E0FF7C007D0A12216C90ED
:105365000534EEF0A3EFF00AEAB403BD900537E08B
:105375004480F0A3E0B43F02E4F0EB14600B04704A
:105385002B7B017A0279EC80067B017A04792690E1
:105395000536E090053DF0900537E090053EF0902C
:0C53A5000538E090053FF07D03125F3BEF
:0153B10022D9
:106BDF00EFC39403400122EF14600A14600A2402E9
:0D6BEF007009A29422A28422A28522C32252
:106DA6009002CFE06003E4A3F0C283E49002CFF048
:056DB600C297C2B022EB
:10689A007D6D9003E5A3E06DFD9003E5E06DFD904D
:1068AA0003E7A3E06DFD9003E7E06DFD9003F2E0DE
:0E68BA006DFD9003F4E06DFD9003F6E06DFFC0
:0168C80022AD
:02618100AB056C
:10618300E4FCFD9005361223DCEB601D900536E040
:10619300FCA3E0FDA3E0FEA3E0FFE47B18FAF9F81B
:1061A30012220C9005361223DCE47FFF7EFFFDFCF8
:1061B300900536E0F8A3E0F9A3E0FAA3E0FBD312DD
:1061C3002329400A9005361223E80000FFFF9005BB
:0861D30036A3A3E0FEA3E0FFE8
:0161DB0022A1
:106E19009003E7E0FEA3E0FF9003F2E0FD02618149
:106E29009003F0E0FEA3E0FF9003F3E0FD0261812F
:076DE300E49003E9F0A3F0C6
:0C6DEA00E49003EBF09003F7F0A3F0221C
:106A560012689A900534EFF0126E199003E9EEF081
:106A6600A3EFF0A37401F0900534E09003F7F0F47F
:026A7600A3F08B
:016A780022FB
:1065D90012689A900535EFF09003EBE0602F900375
:1065E900E7E07002A3E06025126E199003E9E0B5B7
:1065F900061BA3E0B50716900535E0FF9003F7E009
:0E660900B5070AEFF4FFA3E0B50702D322C3E2
:016617002260
:102DF700E4900534F0C2007B017A03792090054402
:102E0700F0A374D9F07D007C017F007E8012460B11
:102E1700900320E064027003022F887402F0A3126B
:102E270023E8000000019003251223E800000001B9
:102E37009003291223E80000000190032D1223E8D4
:102E4700000000019003317446F09003337401F0E1
:102E5700A3F0A3F0A3F0A3F0E4A3F0A3F090033B47
:102E6700F090033AF090033C04F0E490033EF0A3A3
:102E770004F0E4A3F0A3F090034604F0A3F0A3F05A
:102E8700A3F0A3F0A3F0E4A3F0A3F0A31223E800B8
:102E9700000000900342E4F0A3740AF0E4900352A8
:102EA700F0900534F0900534E0FFC3941E501DEFF9
:102EB70025E025E02453F582E43403F5831223E863
:102EC70000000000900534E004F080D9E490033D51
:102ED700F09003CBF0A304F0A3E4F0A304F0A3E481
:102EE700F0A304F0A3E4F0A304F09003D5E4F0A367
:102EF70004F09003D3E4F0A304F09003D77403F035
:102F0700A374E7F0A37403F0A374E7F0A3E4F0A3BA
:102F170074C8F0A3E4F0A3743CF09003E1E4F0A3D9
:102F2700745AF09003DFE4F0A3745AF0900344E47A
:102F3700F0A3741EF09003E37401F0A37432F090D1
:102F47000332F09003E5E4F0A3747BF0A3E4F0A36D
:102F570004F0E4A3F0A3F0A3F0A37403F0A374E7D1
:102F6700F0E4A3F0A3F0A3F0A304F0E4A3F0A3F02C
:102F7700A304F0A3F0A37403F0E4A3F0A3F01243B7
:102F8700DF9003F4E0D3940140057401F0D2009080
:102F970003F4E0600302302B9003E5E07002A3E046
:102FA70070539003E7E07002A3E070499003E9E0F3
:102FB7007002A3E0703F9003EBE07039A3E070026A
:102FC700A3E070319003EEE0702BA3E07027A3E03D
:102FD7007002A3E0701F9003F2E07019A3E0701570
:102FE7009003F5E0700FA3E0700BA3E07007A3E078
:102FF70070030231B8E49003E5F0A3F0A3F0A3F067
:10300700A3F0A3F09003ECF0A3F0A3F0A3F0A3F0D8
:10301700A3F0A3F0A3F09003F5F0A3F0126DEAD2AA
:10302700000231B8D39003E6E094E79003E5E0941B
:10303700034006E4F0A3F0D200D39003E8E094E75E
:103047009003E7E094034006E4F0A3F0D200900376
:10305700EBE0D394014005126DEAD2009003ECE057
:103067007002A3E0600FD39003EDE094E79003ECC8
:10307700E09403400F9003EC7403F0A374E7F0E4CB
:10308700A3F0D2009003EEE0D394014004E4F0D221
:10309700009003EFE0D394014004E4F0D2009003E2
:1030A700F0E07002A3E0600FD39003F1E094E790A3
:1030B70003F0E09403400A9003F0E4F0A304F0D295
:1030C700009003F2E0D394014004E4F0D2009003AF
:1030D700F3E0D394014004E4F0D2009003F5E0D389
:1030E700940140057401F0D2009003F6E06005D327
:1030F700946340089003F67403F0D2009003EBE06A
:10310700600E1265D94009E49003E9F0A3F080103E
:103117009003EBE0700F9003F7E07004A3E0600505
:10312700126DEAD2009003EFE0602E126DEA900371
:10313700EEE07044126E29C39003EAE09F9003E922
:10314700E09E4034126E29EF24FFFFEE34FF900318
:10315700E9F0A3EFF0D200801F9003E7E07002A32D
:10316700E070159003EBE0700A9003E9E07002A3AA
:10317700E06005126DE3D2009003EFE07033900337
:10318700E7E07002A3E060299003EBE07023126E82
:1031970019C39003EAE09F9003E9E09E4013126E83
:1031A70019EF24FFFFEE34FF9003E9F0A3EFF0D20D
:0731B700003000031243DFAA
:0131BE0022EE
:10683500E4900534F07A0479261256C67A0479264E
:1068450090033A1266FA1260027A0279EC1256C681
:106855007A0279EC90033B1266FA7B017A0279ECB5
:03686500026008C6
:05591700900539EFF0DE
:10591C00A31223E80000000090053E7403F09005EC
:10592C003AE0F8A3E0F9A3E0FAA3E0FB900539E034
:10593C00C454F0246DF582E43402F583C083C08234
:10594C0090053EE0D082D08375F002122419E0FE5F
:10595C00A3E0FFE4FCFDEB2FFFEA3EFEED39FDEC8E
:10596C0038FC90053A1223DC90053EE004F0E0B4DC
:10597C0008AC90053AE0FCA3E0FDA3E0FEA3E0FF39
:10598C00E47B05FAF9F812229790053A1223DC9081
:09599C00053AA3A3E0FEA3E0FF1D
:0159A50022DF
:105594009005341223E800000000E5086006E4F5F5
:1055A40008126F177B017A0079037F32125AB750C1
:1055B400787F011259179002C8EEF0A3EFF0126140
:1055C400DC9002AEEEF0A3EFF0E4FF125917900264
:1055D400C6EEF0A3EFF0C3EE94045007E490053850
:1055E400F08014C39002C6E0940C90053850057402
:1055F40002F080037401F0900538E0FF90023FF060
:105604006F6015900007E004F0D39402400F9005FA
:1056140038E090023FF08000E4900007F0900233FD
:09562400E0C394055003E004F01A
:01562D00225A
:0D6E9100900233E0C394054002D322C322D7
:10672F007B017A02796D9005397420F0E4FD126CCB
:10673F004FD200126EAA124B3DD2AE53E1FDE4F5DB
:10674F000A120003126F17126E914008125594121D
:05675F006DBB80F32278
:1061220090052BEFF0C2037F031264DF9002CFE0F1
:106132006003E4A3F0C283E49002CFF0C297C2B03E
:10614200900253F09002D0F0900306F09002E2F039
:10615200900425F0900338E0FEA3E0FF7C007D0A66
:1061620012215A900235EEF0A3EFF0E490024AF0C9
:0F61720090024FF0C2047B017A0279B1026E02F3
:1019CD007A02798E125AB34003021FB990024FE08A
:1019DD006003021DCD9003F974FF1223A9E4FBFAF5
:1019ED00F9F8C31223296003021C2390044FE0640D
:1019FD0001F0E49002D0F0900306F09002E2F09036
:101A0D0002D1F00B7A0279B1126E0290023FE064BE
:101A1D0001705C90033DE07056900346E06050907D
:101A2D00044FE06401704890052BE075F008A42484
:101A3D0021F582E43403F583C083C08290044FE026
:101A4D00D082D08375F004122419E0FCA3E0FDA32D
:101A5D00E0FEA3E0FF9003F91223DC9003F9E0FC14
:101A6D00A3E0FDA3E0FEA3E0FFE47B0AFA804F9024
:101A7D00023FE0601064016003021B6D90033DE0C6
:101A8D007003021B6D90033CE07003021B6DA3E01D
:101A9D00705F90044FE064017032900342E0FEA34A
:101AAD00E0FFE4FCFD9003F91223DC9003F9E0FC68
:101ABD00A3E0FDA3E0FEA3E0FFE47B587A02F9F872
:101ACD0012220C9003F91223DC021D3390052BE03A
:101ADD0075F008A42421F582E43403F583C083C096
:101AED008290044FE0D082D08375F00412241980C7
:101AFD003D90044FE064017032900342E0FEA3E09C
:101B0D00FFE4FCFD9003F91223DC9003F9E0FCA344
:101B1D00E0FDA3E0FEA3E0FFE47B587A02F9F812A2
:101B2D00220C9003F91223DC021D28900321E0FC06
:101B3D00A3E0FDA3E0FEA3E0FF9003F91223DC90E8
:101B4D0003F9E0FCA3E0FDA3E0FEA3E0FFE47B5876
:101B5D007A02F9F812220C9003F91223DC021D858A
:101B6D0090033DE0705890052BE075F008A42421FA
:101B7D00F582E43403F583C083C08290044FE0D036
:101B8D0082D08375F004122419E0FCA3E0FDA3E0DC
:101B9D00FEA3E0FF9003F91223DC9003F9E0FCA310
:101BAD00E0FDA3E0FEA3E0FFE47B587A02F9F81212
:101BBD00220C9003F91223DC1246F0021DAA9004A8
:101BCD004FE025E025E02421F582E43403F583E0A0
:101BDD00FCA3E0FDA3E0FEA3E0FF9003F91223DCDC
:101BED009003F9E0FCA3E0FDA3E0FEA3E0FFE47B9E
:101BFD00587A02F9F812220C9003F91223DC7B01BA
:101C0D007A0279EC900321A3A3E0FEA3E0FDAC06DC
:101C1D00124710021D9690023FE06401703C900344
:101C2D003DE07036900346E0603090044FE0B40123
:101C3D0029E47B0AFAF9F89003F9E0FCA3E0FDA38F
:101C4D00E0FEA3E0FF1222979005341223DC7B0106
:101C5D007A047926900534021D9FE47B587A02F9A7
:101C6D00F89003F9E0FCA3E0FDA3E0FEA3E0FF1272
:101C7D0022979005341223DCE47B0AFAF9F89003DD
:101C8D00F9E0FCA3E0FDA3E0FEA3E0FF122297E440
:101C9D007B3CFAF9F8122297AC00AD01AE02AF030E
:101CAD00EC4D4E4F601F900534E0FCA3E0FDA3E02A
:101CBD00FEA3E02401FFE43EFEE43DFDE43CFC9088
:101CCD0005341223DC90044FE06401707B90033CDB
:101CDD00E0602D90023FE0FF6402600DEF600A644A
:101CED0001701D90033DE060177B017A0279EC9045
:101CFD000321A3A3E0FEA3E0FDAC061247108078FC
:101D0D007B017A047926900534A3A3E0FEA3E0FDC0
:101D1D00AC0612471090033DE0600B7B017A02790F
:101D2D00EC900321806C90052BE075F008A4242124
:101D3D00F582E43403F583A3A3E0FEA3E0FDAC0636
:101D4D007B017A0279EC80757B017A0279EC900542
:101D5D0034A3A3E0FEA3E0FDAC0612471090033CB4
:101D6D00E0602090023FE0FF6402600CEF6009B478
:101D7D00011190033DE0600B7B017A047926E4FDAF
:101D8D00FC803A90033DE060147B017A0479269043
:101D9D000325A3A3E0FEA3E0FDAC06802090052B58
:101DAD00E075F008A42425F582E43403F583A3A39C
:101DBD00E0FEA3E0FDAC067B017A04792612471004
:101DCD0090023FE0FF601064016003021F28900342
:101DDD003DE07003021F28900333E0FF7003021FE4
:101DED00B990044FE0FEB40103EF7018EE600302EA
:101DFD001EA690024FE07003021EA6900333E07002
:101E0D0003021EA690023A74FF1223A9E4FBFAF90D
:101E1D00F8C31223296003021FB990028DE06401FB
:101E2D00F0900346E0603990028DE0B4013225E078
:101E3D0025E02429F582E43403F583E0FCA3E0FDDD
:101E4D00A3E0FEA3E0FF90023A1223DC90023AE0F9
:101E5D00FCA3E0FDA3E0FEA3E0FFE47B0A021FAFBD
:101E6D0090028DE025E025E02429F582E43403F588
:101E7D0083E0FCA3E0FDA3E0FEA3E0FF90023A1295
:101E8D0023DC90023AE0FCA3E0FDA3E0FEA3E0FF1B
:101E9D00E47B587A02F9021FAF900336E090028D71
:101EAD00F0900346E0603B90028DE0B4013425E0F4
:101EBD0025E02429F582E43403F583E0FCA3E0FD5D
:101ECD00A3E0FEA3E0FF90023A1223DC90023AE079
:101EDD00FCA3E0FDA3E0FEA3E0FFE47B0AFAF90218
:101EED001FAF90028DE025E025E02429F582E43432
:101EFD0003F583E0FCA3E0FDA3E0FEA3E0FF900269
:101F0D003A1223DC90023AE0FCA3E0FDA3E0FEA32D
:101F1D00E0FFE47B587A02F9021FAF900333E070C3
:101F2D0003021FB9900336E090028DF0900346E056
:101F3D00603A90028DE0B4013325E025E02429F5C7
:101F4D0082E43403F583E0FCA3E0FDA3E0FEA3E00F
:101F5D00FF90023A1223DC90023AE0FCA3E0FDA3CD
:101F6D00E0FEA3E0FFE47B0AFAF9803690028DE0F3
:101F7D0025E025E02429F582E43403F583E0FCA374
:101F8D00E0FDA3E0FEA3E0FF90023A1223DC9002F5
:101F9D003AE0FCA3E0FDA3E0FEA3E0FFE47B587A6A
:101FAD0002F9F812220C90023A1223DC90024FE053
:101FBD006075900009E06002E4F07B017A0279EC33
:101FCD00900321A3A3E0FEA3E0FDAC06124710127F
:101FDD004F0B9002D5E0FCA3E0FDA3E0FEA3E0FFD4
:101FED00EC4D4E4F6016900008E070109002D51227
:101FFD0023E8000000009000087401F07A0279DAFD
:10200D00125AB340030220BD9002D5E0FCA3E0FDBF
:10201D00A3E0FEA3E02401FFE43EFEE43DFDE43C2D
:10202D00FC9002D50223DC900009E060030220BD84
:10203D00FFFEFDFC9002D5E0F8A3E0F9A3E0FAA3C2
:10204D00E0FBC3122329605A900352E004F0E0D361
:10205D00941D4002E4F0900352E0FBEBD39400405A
:10206D002DEB25E025E0244FF582E43403F583E0E4
:10207D00FCA3E0FDA3E0FEA3E0FFEB25E025E024BB
:10208D0053F582E43403F5831223DC1B80CD9002DB
:10209D00D5E0FCA3E0FDA3E0FEA3E0FF9003531207
:1020AD0023DC1243DF9000097401F0E4900008F086
:0120BD002200
:1042BD00900230E070030243D77B017A0279E3125A
:1042CD005AB540030243DE20810E9002EBE004F06C
:1042DD0070069002EAE004F09002C3E004F070066C
:1042ED009002C2E004F0C39002C3E094FA9002C2BF
:1042FD00E0940050030243DE9002EBE094C890027C
:10430D00EAE09400401190024F7401F090000AE42D
:10431D00F0A304F00243BD90044FE06401704E9091
:10432D000337E0700C9003F91223E80000000180C0
:10433D007490033EE0600D24FE6021146008240299
:10434D007063800280169002D9E075F002A4240AF1
:10435D00FFE435F0FE3395E0FDFC80099002D9E0D5
:10436D00FFE4FCFDFE9003F91223DC80389003215D
:10437D00E0FCA3E0FDA3E0FEA3E0FF9003F9122310
:10438D00DC9003F9E0FCA3E0FDA3E0FEA3E0FFE475
:10439D007B587A02F9F812220C9003F91223DC9063
:1043AD0004017401F0E490024FF090000AF0A3F0C4
:1043BD00E4900230F09002EAF0A3F09002C2F0A374
:1043CD00F07B017A0279E3026E02E490000AF0A319
:0243DD00F022CC
:1039190090052BE075F008A42425F582E43403F51D
:1039290083A3A3E0FEA3E0FDAC067B017A0479261C
:103939001247101246F07B017A02798E126E0290BC
:103949000344E0FEA3E0FF7C007D0A12215AE4FD56
:103959009001231223DC90023FE0601064016003B0
:10396900023A6F90033DE07003023A6F90033CE026
:103979006029900335E0FF90044FF0BF010D9003DB
:1039890042E0FEA3E0FFE4FCFD8030900321E0FC6F
:10399900A3E0FDA3E0FEA3E0FF8020900335E090C3
:1039A900044FF025E025E02421F582E43403F58372
:1039B900E0FCA3E0FDA3E0FEA3E0FF9003F91223DE
:1039C900DC9003F9E0FCA3E0FDA3E0FEA3E0FFE443
:1039D9007B587A02F9F812220C9003F91223DC9031
:1039E9000336E090028DF0900346E0603990028D35
:1039F900E0B4013225E025E02429F582E43403F519
:103A090083E0FCA3E0FDA3E0FEA3E0FF90023A12ED
:103A190023DC90023AE0FCA3E0FDA3E0FEA3E0FF73
:103A2900E47B0AFA803590028DE025E025E024291F
:103A3900F582E43403F583E0FCA3E0FDA3E0FEA3F3
:103A4900E0FF90023A1223DC90023AE0FCA3E0FD89
:103A5900A3E0FEA3E0FFE47B587A02F9F812220CF6
:103A690090023A023B3790023FE064016003023B57
:103A79003A90033DE06003023B3A900336E090043C
:103A89004FF0900346E0605790044FE0B401509026
:103A9900052BE075F008A42421F582E43403F583AD
:103AA900C083C08290044FE0D082D08375F00412A5
:103AB9002419E0FCA3E0FDA3E0FEA3E0FF9003F9D5
:103AC9001223DC9003F9E0FCA3E0FDA3E0FEA3E0F0
:103AD900FFE47B0AFAF9F812220C9003F9804F905F
:103AE900052BE075F008A42421F582E43403F5835D
:103AF900C083C08290044FE0D082D08375F0041255
:103B09002419E0FCA3E0FDA3E0FEA3E0FF9003F984
:103B19001223DC9003F9E0FCA3E0FDA3E0FEA3E09F
:103B2900FFE47B587A02F9F812220C9003F9122368
:073B3900DCE49002D1F02250
:104D9600E49002D9F090033CE0600D900342E0FEFF
:104DA600A3E0FFE4FCFD800E900325E0FCA3E0FDFC
:104DB600A3E0FEA3E0FF9004021223DC900402E0CD
:104DC600FCA3E0FDA3E0FEA3E0FFE47B587A02F932
:104DD600F812220C9004021223DC900337E070359F
:104DE600900402E0FCA3E0FDA3E0FEA3E0FFC00701
:104DF600900331E0FBD007C3EF9BFFEE9400FEED7E
:104E06009400FDEC9400FC9004021223DC9003E471
:104E1600E09002D9F0900337E0B40110900332E03D
:104E26009002D9F0C3941950037419F09002D9E096
:104E3600FB900402E0FCA3E0FDA3E0FEA3E0C39B1D
:104E4600FFEE9400FEED9400FDEC9400FC9002CA87
:034E56000223DC58
:106E080030000B9002D0E07007D29704F022C297AE
:016E18002257
:106D0800300012900306E06003C29722D2979002E7
:086D1800E27401F022C297228F
:0F6E7500D2B090024FE060069004257401F02225
:03005800C2B02211
:096ED200308105E4900425F02252
:10506900E4900253F0900338E0FEA3E0FF7C007D5A
:0C5079000A12215A900235EEF0A3EFF06D
:105085007F02126E8440101F126E84400AE4900263
:10509500A2F09002AC04F07B017A00790C90053BFC
:1050A5001223E8000003E790053F7402F0A314F013
:1050B500C2009002ACE0900541F07F007E007D00CB
:1050C5007C001236F250469002A2E004F0B41408B7
:1050D5009002AC740AF0800D9002A2E0B42806900C
:1050E50002AC7419F01254F99004247401F0FB7A9F
:1050F50004794B126E02900338E0FEA3E0FF7C00BA
:0E5105007D0A12215A900235EEF0A3EFF0223F
:066868007BFF7A4A79ED86
:10686E00900534EBF0A3EAF0A3E9F0900424740150
:10687E00F0FB7A04794B126E021254F9900534E053
:0C688E00FBA3E0FAA3E0F97F01026335F0
:10001E007B017A04794B7FF47E01125AB9502A90F3
:10002E000424E06401F0600D90000CA3A3E0FEA395
:10003E00E0FF0255037B017A0279ECE490053DF076
:0A004E00A3F0A3F07D03125F3B2234
:106D4E007BFF7A4A79E27F01126335126002126D7F
:076D5E00BB12699A026DBB34
:106CD6007B017A04792690053B7440F0A3F01253A9
:0A6CE600C4126DBB12699A026DBB67
:106A79001254F97BFF7A4A79E67F01126335126075
:106A8900027B017A0279EC126008126DBB12699AD5
:036A9900026DBBD0
:106A9C001254F97BFF7A4A79EA7F0112633512604E
:106AAC00027B017A0279EC126008126DBB12699AB2
:036ABC00026DBBAD
:0B6EB50090024B1223E80000000022B6
:104177009003F4E0700790052AF0024248200342BA
:10418700D20390000C1223E800000000E4900234F0
:10419700F09002A2F09002AC04F0126868126ABFB5
:1041A700D2000F126AC3E4900253F0900338E0FE86
:1041B700A3E0FF7C007D0A12215A900235EEF0A39E
:1041C700EFF012506912001EE4FF1269E640030285
:1041D70042BC900338E0FEA3E0FF7C007D0A122179
:1041E7005A900235EEF0A3EFF09003E5E0FEA3E06E
:1041F700FFE4FD90000CE0F8A3E0F9A3E0FAA3E0E8
:10420700FBC31223297042900234F0126A79900599
:104217002AE0601CE4F09003E9F0A3F09003EFF0CC
:10422700126DEA126EB5E4900229F01243DF801591
:10423700900229E0600A9003EFE070047F06806037
:10424700E4900229F07F028057900234E004F012D4
:104257006A9C9003F6E0FF900234E0C39F404490CD
:104267000229E0601CE4900234F0900229F09000EB
:104277000C1223E8000000007F031264DF7F028036
:104287001F9003EFE0600EE4900234F09003EEF02D
:104297001243DF800E9003EE7401F01243DF7F08B4
:1042A70002612290000C1223E800000000126868E7
:0642B7007F031264DF2208
:104FBB002003609003F4E0600C900229E0600690FF
:104FCB0003EFE0600AE4900229F07F02025065D201
:104FDB000390000C1223E800000000E49002A2F002
:104FEB009002AC04F07BFF7A4A79F112686E126A78
:104FFB00BFD2000F126AC3E4900253F0900338E063
:10500B00FEA3E0FF7C007D0A12215A900235EEF0E0
:10501B00A3EFF012506912001EE4FF1269E6503D37
:10502B0090000CA3A3E0FFA3E09003E5CFF0A3EF68
:10503B00F0A3E0FEA3E0FFE4FCFD90000C1223DCE8
:10504B00E4900229F01243DF126D4E9003F5E060FD
:0E505B00047F07800590023FE0FF12612222D1
:1057F3009003F4E06004A3E0700AE4900229F07FD0
:105803000202588320034BD2039003E7E0FEA3E098
:10581300FFE4FCFD90000C1223DCE49002A2F09064
:1058230002AC04F07BFF7A4A79F512686E126ABF04
:10583300D2000F126AC3E4900253F0900338E0FEE3
:10584300A3E0FF7C007D0A12215A900235EEF0A3FB
:10585300EFF0125069E4FF1269E6502790000CA3A1
:10586300A3E0FFA3E09003E7CFF0A3EFF0E4A3F0FE
:10587300A3F0126DEA126EB51243DF90023FE0FF10
:04588300126122226A
:10498B009003F4E0700B90052AF0900229F0024A94
:10499B0044200344D20390000C1223E800000000D3
:1049AB00E49002A2F09002AC04F07BFF7A4A79F912
:1049BB0012686E126ABFD2000F126AC3E4900253E0
:1049CB00F0900338E0FEA3E0FF7C007D0A12215A31
:1049DB00900235EEF0A3EFF012506912001EE4FFC7
:1049EB001269E65074900338E0FEA3E0FF7C007D73
:1049FB000A12215A900235EEF0A3EFF09003ECE08F
:104A0B00FEA3E0FFE4FD90000CE0F8A3E0F9A3E0C7
:104A1B00FAA3E0FBC31223297024900234F0900513
:104A2B002AF0900229F09003EEF0A304F0126DE34C
:104A3B00126EB51243DF126A797F02026122126A8B
:104A4B009C90000C1223E8000000007BFF7A4A794F
:0A4A5B00F912686E7F031264DF2277
:10676400126DA6126ABFD2000F126AC37BFF7A4A67
:1067740079FD1F1263357BFF7A4A79DE7F0112634C
:10678400357B017A0279EC126008126002126DBB4B
:0567940012650D80F804
:086EEB00E47FA07E8CFDFC2277
:10575D009003F4E0601A9003EEE07014A3E0701370
:10576D009003E7E07002A3E060069003EBE06003B6
:10577D00026EB5126EEBC004C005C006C0079002E4
:10578D004B1223A7A804A905AA06AB07D007D0067C
:10579D00D005D004C3122329404B126EB59003EAF5
:1057AD00E004F070069003E9E004F09003EFE06090
:1057BD001E126DEA126E29C39003EAE09F9003E971
:1057CD00E09E401EE4F0A3F09003EE04F08013126F
:1057DD006E19C39003EAE09F9003E9E09E40031227
:0657ED006A561243DF22A0
:105DF70020032BD203124F0B90053D74FFF0A374C1
:105E07004AF0A374DEF07B017A0279EC124F1F7B14
:105E1700017A02798E126E029002477401F07B01BB
:105E27007A02798E7FE87E03125AB9501C90024796
:105E3700E06401F024FF9200E4FF126AC390024776
:105E4700E024FF92000F126AC390023FE07003FF45
:0F5E5700800990023FE0B401057F011261222211
:10007E00200311D203123919124D96126ABFD20003
:10008E000F126AC31219CD1242BD90044FE07003D5
:10009E0002086A14600302101A90033CE070030217
:1000AE00029420814390022AE0703D900230E0706D
:1000BE003720040BD2047B017A0279B1126E0290C2
:1000CE000240E0701F7B017A0279B17F207E4EFDE7
:1000DE00FC125ABD400302019690024F7401F0903B
:1000EE00023780477B01804530040BC2047B017AC6
:1000FE000279B1126E02900333E0FF600860379010
:10010E00028DE0703190024FE0602B900240E07063
:10011E002590022AE0701F90000AE07002A3E070A2
:10012E0015900230E0700F90022A04F0FB7A0279EB
:10013E00B1126E028052900333E0604C90028DE05B
:10014E00640170447F02FEFDFC90023AE0F8A3E0E9
:10015E00F9A3E0FAA3E0FBD3122329502B90024F10
:10016E00E06025900230E0701F900240E070199020
:10017E00023004F0E490022AF07B017A0279B11287
:10018E006E029002377401F090022AE070030202B0
:10019E00B4900230E060030202B4900333E070705A
:1001AE007B017A0279B17F987E3AFDFC125ABD40EE
:1001BE00030202B4E490024FF090023704F0900371
:1001CE0037E0700D9003F91223E8000000010202DF
:1001DE008E90033EE0601024FE602414600B240217
:1001EE00600302028E800280169002D9E075F00242
:1001FE00A4240AFFE435F0FE3395E0FDFC8009905F
:10020E0002D9E0FFE4FCFDFE9003F91223DC8070BE
:10021E0090028DE060030202AB7B017A0279B17F1E
:10022E00987E3AFDFC125ABD507CE490024FF0903D
:10023E00023704F0900337E0700C9003F91223E8B4
:10024E0000000001803A90033EE0600D24FE602124
:10025E0014600824027029800280169002D9E0757D
:10026E00F002A4240AFFE435F0FE3395E0FDFC8095
:10027E00099002D9E0FFE4FCFDFE9003F91223DCA5
:10028E00E490022A8016C204E490024FF090022AF3
:10029E00F0900230F0900240F0900237F07B017A3D
:1002AE000279B1126E02900337E0146058046003B5
:1002BE00020705D2839002CF7401F0900402E0FC95
:1002CE00A3E0FDA3E0FEA3E0FF9003F9E0F8A3E0B6
:1002DE00F9A3E0FAA3E0FBC3122329501F9002CA30
:1002EE00E0FCA3E0FDA3E0FEA3E0FF9003F9E0F83D
:1002FE00A3A3A3E01223294003D38001C3920012CB
:10030E006E0802070590033EE01470030203C81442
:10031E0070030204A51470030205B12403600302E6
:10032E0007059003F9E0FCA3E0FDA3E0FEA3E0FFC8
:10033E00E4FBFAF9F8C312232950259002D9E0FF05
:10034E00E4FCFDFE9003F9E0F8A3E0F9A3E0FAA3C4
:10035E00E0FB1223295009D2839002CF7401800F43
:10036E009002CFE06003E4A3F0C283E49002CFF0EA
:10037E00900240F0900402E0FCA3E0FDA3E0FEA397
:10038E00E0FF9003F9E0F8A3E0F9A3E0FAA3E0FBA5
:10039E00D312232950209002CAE0FCA3E0FDA3E073
:1003AE00FEA3E0FF9003F9E0F8A3A3A3E012232934
:1003BE004004D3020700C30207009003F9E0FCA338
:1003CE00E0FDA3E0FEA3E0FFE4FBFAF9F8C312237D
:1003DE0029501C9002D9E0FFE4FCFDFE9003F9E0E9
:1003EE00F8A3E0F9A3E0FAA3E0FB1223294046901C
:1003FE0002D9E0240AFFE433FE3395E0FDFC9003BE
:10040E00F9E0F8A3E0F9A3E0FAA3E0FBD312232965
:10041E00402C9002D9E075F002A4240AFFE435F0D6
:10042E00FE3395E0FDFC9003F9E0F8A3A3A3E0D31F
:10043E001223295009D2839002CF7401800F9002AB
:10044E00CFE06003E4A3F0C283E49002CFF0900209
:10045E0040F0900402E0FCA3E0FDA3E0FEA3E0FF69
:10046E009003F9E0F8A3E0F9A3E0FAA3E0FBD312BE
:10047E002329501F9002CAE0FCA3E0FDA3E0FEA3D7
:10048E00E0FF9003F9E0F8A3A3A3E01223294003B1
:10049E00D38001C30207009003F9E0FCA3E0FDA3A3
:1004AE00E0FEA3E0FFE4FBFAF9F8C312232950257E
:1004BE009002D9E0FFE4FCFDFE9003F9E0F8A3E022
:1004CE00F9A3E0FAA3E0FB1223295009D28390028C
:1004DE00CF7401800F9002CFE06003E4A3F0C283DB
:1004EE00E49002CFF0900240F0900402E0FCA3E012
:1004FE00FDA3E0FEA3E0FF9003F9E0F8A3E0F9A36B
:10050E00E0FAA3E0FBD3122329501C9002CAE0FCB0
:10051E00A3E0FDA3E0FEA3E0FF9003F9E0F8A3A3A0
:10052E00A3E012232950759002CAE0FCA3E0FDA3BC
:10053E00E0FEA3E024F6FFEE34FFFEED34FFFDEC0B
:10054E0034FFFC9003F9E0F8A3E0F9A3E0FAA3E08E
:10055E00FBD312232950489002CAE0FCA3E0FDA36E
:10056E00E0FEA3E024F6FFEE34FFFEED34FFFDECDB
:10057E0034FFFCC0079002D9E0FBD007C3EF9BFF0E
:10058E00EE9400FEED9400FDEC9400FC9003F9E077
:10059E00F8A3A3A3E0FBD31223294003D38001C306
:1005AE000207009003F9E0FCA3E0FDA3E0FEA3E048
:1005BE00FFE4FBFAF9F8C3122329501C9002D9E08C
:1005CE00FFE4FCFDFE9003F9E0F8A3E0F9A3E0FAE6
:1005DE00A3E0FB12232940469002D9E0240AFFE44F
:1005EE0033FE3395E0FDFC9003F9E0F8A3E0F9A3A8
:1005FE00E0FAA3E0FBD3122329402C9002D9E07538
:10060E00F002A4240AFFE435F0FE3395E0FDFC90E1
:10061E0003F9E0F8A3A3A3E0D31223295009D28350
:10062E009002CF7401800F9002CFE06003E4A3F03C
:10063E00C283E49002CFF0900240F0900402E0FCFE
:10064E00A3E0FDA3E0FEA3E0FF9003F9E0F8A3E032
:10065E00F9A3E0FAA3E0FBD3122329501C9002CA9F
:10066E00E0FCA3E0FDA3E0FEA3E0FF9003F9E0F8B9
:10067E00A3A3A3E012232950759002CAE0FCA3E0C5
:10068E00FDA3E0FEA3E024F6FFEE34FFFEED34FF03
:10069E00FDEC34FFFC9003F9E0F8A3E0F9A3E0FAD7
:1006AE00A3E0FBD312232950489002CAE0FCA3E03A
:1006BE00FDA3E0FEA3E024F6FFEE34FFFEED34FFD3
:1006CE00FDEC34FFFCC0079002D9E0FBD007C3EF6E
:1006DE009BFFEE9400FEED9400FDEC9400FC900365
:1006EE00F9E0F8A3A3A3E0FBD31223294003D380A0
:1006FE0001C39200126D089003F9E0FCA3E0FDA384
:10070E00E0FEA3E0FFE4FBFAF9F8C3122329503010
:10071E00E47F96FEFDFC9003F9E0F8A3E0F9A3E078
:10072E00FAA3E0FB1223295017900334E0601190D6
:10073E00024FE0700B900237E07005D2B002101A33
:10074E00900333E0700302101A90028DE0700302E2
:10075E00086714600302101A900336E06401600308
:10076E0002086490024FE06003020864900344E0C4
:10077E007002A3E070030208647B017A00791812FC
:10078E005AB550479002D1E0704190012374FF1288
:10079E0023A9E4FBFAF9F8C3122329600302101A05
:1007AE00126E750B7A007918126E02900344E0FEF9
:1007BE00A3E0FF7C007D0A12215AE4FD9001231272
:1007CE0023DC9002D17401F002101A9002D1E06085
:1007DE0003020FEA900346E0603990028DE0B40107
:1007EE003225E025E02429F582E43403F583E0FC8C
:1007FE00A3E0FDA3E0FEA3E0FF90023A1223DC90FB
:10080E00023AE0FCA3E0FDA3E0FEA3E0FFE47B0AD6
:10081E00FA803590028DE025E025E02429F582E46A
:10082E003403F583E0FCA3E0FDA3E0FEA3E0FF901C
:10083E00023A1223DC90023AE0FCA3E0FDA3E0FEB4
:10084E00A3E0FFE47B587A02F9F812220C90023AE8
:10085E001223DC02101A020FEA020FEFC2B0E4906C
:10086E000237F090033CE07003020FF420816D908C
:10087E000010E07067900230E0706120040BD2042B
:10088E007B017A0279B1126E0290024FE060030290
:10089E00096E7B017A0279B17F207E4EFDFC125AE1
:1008AE00BD502690024F7401F0E4900010F09003BA
:1008BE0037E0700AD2839002CF04F002096E9002E4
:1008CE00CFE0600EE4A3F080099002CFE06003E475
:1008DE00A3F0C283E49002CFF002096E30040BC283
:1008EE00047B017A0279B1126E02900333E0FF604D
:1008FE0008602A90028DE0702490024FE0601E90F6
:10090E000010E0701890000AE07002A3E0700E90E4
:10091E000230E0700890001004F0FB803C9003332E
:10092E00E0603D90028DE0640170357F02FEFDFCBB
:10093E0090023AE0F8A3E0F9A3E0FAA3E0FBD312A9
:10094E002329501C90024FE06016900230E0701088
:10095E0004F0E4900010F07B017A0279B1126E027D
:10096E00900010E06056900230E070507B017A02E9
:10097E0079B17F987E3AFDFC125ABD5057E4900231
:10098E004FF0900321E0FCA3E0FDA3E0FEA3E0FF07
:10099E009003F91223DC9003F9E0FCA3E0FDA3E041
:1009AE00FEA3E0FFE47B587A02F9F812220C9003C2
:1009BE00F91223DC9004017401F0801890024FE0CC
:1009CE0070129002CFE06003E4A3F0C283E49002C1
:1009DE00CFF0C297900401E07003020FD5E47F5868
:1009EE007E02FDFC900321E0F8A3E0F9A3E0FAA358
:1009FE00E0FB12220CC0079002D9E0FBD007C3EF38
:100A0E009BFFEE9400FEED9400FDEC9400FC900331
:100A1E00071223DCE47F587E02FDFC900321E0F8F0
:100A2E00A3E0F9A3E0FAA3E0FB12220C90031B1241
:100A3E0023DC900337E0146019046003020FD59095
:100A4E0002CFE06003E4A3F0C283E49002CFF00291
:100A5E000FC490033EE0147003020B4514700302A2
:100A6E000D0D147003020E0224036003020FD590C5
:100A7E0003F9E0FCA3E0FDA3E0FEA3E0FF90030773
:100A8E00E0F8A3E0F9A3E0FAA3E0FBC31223295098
:100A9E002C90031BE0FCA3E0FDA3E0FEA3E0FF907F
:100AAE0003F9E0F8A3E0F9A3E0FAA3E0FBC31223F5
:100ABE0029500AD2839002CF7401F080109002CF99
:100ACE00E06003E4A3F0C283E49002CFF0E47F5829
:100ADE007E02FDFC900321E0F8A3E0F9A3E0FAA367
:100AEE00E0FB12220CC0079002D9E0FBD007C3EF47
:100AFE009BFFEE9400FEED9400FDEC9400FC900341
:100B0E00F9E0F8A3E0F9A3E0FAA3E0FBD31223295E
:100B1E004003020FD5E47F587E02FDFC900321E0D6
:100B2E00F8A3E0F9A3E0FAA3E0FB12220C9003F97C
:100B3E001223DCE4020FC4E47F587E02FDFC900316
:100B4E0021E0F8A3E0F9A3E0FAA3E0FB12220CC027
:100B5E00079002D9E0FBD007C3EF9BFFEE9400FE97
:100B6E00ED9400FDEC9400FC9003F9E0F8A3E0F99D
:100B7E00A3E0FAA3E0FBD3122329402FE47F587E93
:100B8E0002FDFC900321E0F8A3E0F9A3E0FAA3E054
:100B9E00FB12220C9003F9E0F8A3E0F9A3E0FAA30C
:100BAE00E0FBC31223295003020C6EE47F587E0231
:100BBE00FDFC900321E0F8A3E0F9A3E0FAA3E0FB2B
:100BCE0012220CC006C0079002D9E075F002A4AE46
:100BDE00F0FBAA06D007D006C3EF9BFFEE9AFEED00
:100BEE009400FDEC9400FCEF24F6FFEE34FFFEEDD6
:100BFE0034FFFDEC34FFFC9003F9E0F8A3E0F9A319
:100C0E00E0FAA3E0FBD3122329405FE47F587E0273
:100C1E00FDFC900321E0F8A3E0F9A3E0FAA3E0FBCA
:100C2E0012220CC0079002D9E0FBD007C3EF9BFF46
:100C3E00EE9400FEED9400FDEC9400FCEF24F6FF24
:100C4E00EE34FFFEED34FFFDEC34FFFC9003F9E0D3
:100C5E00F8A3E0F9A3E0FAA3E0FBC3122329500A9C
:100C6E00D2839002CF7401F080109002CFE0600327
:100C7E00E4A3F0C283E49002CFF0E47F587E02FD3D
:100C8E00FC900321E0F8A3E0F9A3E0FAA3E0FB1245
:100C9E00220CC006C0079002D9E075F002A4AEF097
:100CAE00FBAA06D007D006C3EF9BFFEE9AFEED948B
:100CBE0000FDEC9400FCEF24F6FFEE34FFFEED3465
:100CCE00FFFDEC34FFFC9003F9E0F8A3E0F9A3E09C
:100CDE00FAA3E0FBD31223294003020FD5E47F5879
:100CEE007E02FDFC900321E0F8A3E0F9A3E0FAA355
:100CFE00E0FB12220C9003F91223DCE4020FC4E491
:100D0E007F587E02FDFC900321E0F8A3E0F9A3E0FA
:100D1E00FAA3E0FB12220CC0079002D9E0FBD00729
:100D2E00C3EF9BFFEE9400FEED9400FDEC9400FCEF
:100D3E009003F9E0F8A3E0F9A3E0FAA3E0FBD312E5
:100D4E0023294036E47F587E02FDFC900321E0F813
:100D5E00A3E0F9A3E0FAA3E0FB12220C9003F9E062
:100D6E00F8A3E0F9A3E0FAA3E0FBC3122329500A8B
:100D7E00D2839002CF7401F080109002CFE0600316
:100D8E00E4A3F0C283E49002CFF0E47F587E02FD2C
:100D9E00FC900321E0F8A3E0F9A3E0FAA3E0FB1234
:100DAE00220CC0079002D9E0FBD007C3EF9BFFEEE9
:100DBE009400FEED9400FDEC9400FC9003F9E0F835
:100DCE00A3E0F9A3E0FAA3E0FBD312232940030228
:100DDE000FD5E47F587E02FDFC900321E0F8A3E0DE
:100DEE00F9A3E0FAA3E0FB12220C9003F91223DC24
:100DFE00E4020FC4E47F587E02FDFC900321E0F86C
:100E0E00A3E0F9A3E0FAA3E0FB12220CC0079002C4
:100E1E00D9E0FBD007C3EF9BFFEE9400FEED9400EC
:100E2E00FDEC9400FC9003F9E0F8A3E0F9A3E0FADE
:100E3E00A3E0FBD3122329402FE47F587E02FDFC52
:100E4E00900321E0F8A3E0F9A3E0FAA3E0FB12225D
:100E5E000C9003F9E0F8A3E0F9A3E0FAA3E0FBC3DA
:100E6E001223295003020F2BE47F587E02FDFC90C3
:100E7E000321E0F8A3E0F9A3E0FAA3E0FB12220CB1
:100E8E00C006C0079002D9E075F002A4AEF0FBAA2E
:100E9E0006D007D006C3EF9BFFEE9AFEED9400FD41
:100EAE00EC9400FCEF24F6FFEE34FFFEED34FFFD74
:100EBE00EC34FFFC9003F9E0F8A3E0F9A3E0FAA309
:100ECE00E0FBD3122329405FE47F587E02FDFC90A5
:100EDE000321E0F8A3E0F9A3E0FAA3E0FB12220C51
:100EEE00C0079002D9E0FBD007C3EF9BFFEE940042
:100EFE00FEED9400FDEC9400FCEF24F6FFEE34FFC3
:100F0E00FEED34FFFDEC34FFFC9003F9E0F8A3E0B6
:100F1E00F9A3E0FAA3E0FBC3122329500AD283906F
:100F2E0002CF7401F080109002CFE06003E4A3F0D2
:100F3E00C283E49002CFF0E47F587E02FDFC900362
:100F4E0021E0F8A3E0F9A3E0FAA3E0FB12220CC023
:100F5E0006C0079002D9E075F002A4AEF0FBAA0617
:100F6E00D007D006C3EF9BFFEE9AFEED9400FDEC8A
:100F7E009400FCEF24F6FFEE34FFFEED34FFFDECA3
:100F8E0034FFFC9003F9E0F8A3E0F9A3E0FAA3E044
:100F9E00FBD31223295030E47F587E02FDFC9003D0
:100FAE0021E0F8A3E0F9A3E0FAA3E0FB12220C90F3
:100FBE0003F91223DCE4900010F0900401F07B01A1
:100FCE007A0279B1126E02900333E0603F90024FC5
:100FDE00E0603990028DE06008147030126E7580FA
:100FEE002B1200588026C204E490024FF09000109D
:100FFE00F07B017A0279B1126E029002CFE06003AB
:10100E00E4A3F0C283E49002CFF0C297126ED290A6
:10101E00033DE0701790023FE0B402047F028009A6
:0D102E0090023FE0B401057F011261222213
:1065970090033DE0600302007E20030ED203123910
:1065A70019126ABFD2000F126AC31219CD90044F95
:1065B700E06007147006D2B08002C2B090023FE0DC
:1065C700B402047F02800790023FE07004FF12616B
:0265D70022227E
:1025760090033DE0600302280D30030302263DD29E
:102586000390023FE0702790033CE06005E4FDFC09
:10259600806C90043DE075F008A42425F582E434AF
:1025A60003F583A3A3E0FEA3E0FDAC0680509002F2
:1025B6003FE0B4011C90043DE075F008A42425F525
:1025C60082E43403F583A3A3E0FEA3E0FDAC06801A
:1025D6002D90023FE06402702A90033CE06005E41F
:1025E600FDFC801A90043DE075F008A42425F582D0
:1025F600E43403F583A3A3E0FEA3E0FDAC067F016C
:1026060012680C90043DE075F008A42421F582E4DC
:102616003403F583126801126ABFD2000F126AC32F
:10262600126DF6E4900251F090024704F0E4900235
:10263600A2F09002AC04F07B017A02792B7FF47E43
:1026460001125AB9501D900420E0600214F0900265
:1026560047E06401F0FE900251E0FFEE24FF920095
:10266600126AC3E4FF1269E6503E900251E0FFD2BF
:1026760000126AC3900251E06401F090023FE070DC
:102686000F90033CE06009900251E0B40102E4F0CF
:10269600900251E0FFC200126AC3126DFCE4900280
:1026A60047F0900420740CF07F02126E8440101FD5
:1026B600126E84400AE49002A2F09002AC04F090FC
:1026C600043DE075F008A42421F9740335F0FA7B83
:1026D60001900251E075F004A429F9EA35F0FA9068
:1026E600043DE025E025E024CBF582E43403F583C0
:1026F600C083C082900251E0D082D08375F002126E
:102706002419E0FEA3E0FFE4FCFDC004C005C006FA
:10271600C00790043DE025E025E024D7F582E434A7
:1027260003F583C083C082900251E0D082D08375C6
:10273600F002122419E0FEA3E0FFE490053B122309
:10274600DC90053F7402F0A314F0C2009002ACE0E6
:10275600900541F0D007D006D005D0041236F240DD
:10276600030227EF9002A2E004F0B414089002AC32
:10277600740AF0800D9002A2E0B428069002AC74B0
:1027860019F090023FE0701490033CE0600E900256
:1027960051E0B40107E4FDFC7F01802F90043DE089
:1027A60075F008A42421F582E43403F583C083C0C0
:1027B60082900251E0FBD082D08375F00412241976
:1027C600A3A3E0FEA3E0FDAC06AF0312680C9002E3
:1027D60047E0701204F0900251E0FF900247E024B7
:1027E600FF9200126AC3126DF690023FE05401FF99
:1027F60090043DE06F6004EFF0C203900420E060B7
:10280600030229C90229B2200344D20390033CE003
:102816006005E4FDFC800C900325A3A3E0FEA3E085
:10282600FDAC067F0112680C900321126801126A42
:10283600BFD2000F126AC3126DF6E4900251F090F7
:10284600024704F0E49002A2F09002AC04F07B018F
:102856007A02792B7FF47E01125AB9501D9004201A
:10286600E0600214F0900247E06401F0FE9002512D
:10287600E0FFEE24FF9200126AC3E4FF1269E650FD
:1028860038900251E0FFD200126AC3900251E06410
:1028960001F090033CE06009900251E0B40102E4CB
:1028A600F0900251E0FFC200126AC3126DFCE49080
:1028B6000247F0900420740CF07F02126E844010E0
:1028C6001F126E84400AE49002A2F09002AC04F05B
:1028D600900251E075F004A42421F9740335F0FA4E
:1028E6007B01E025E024CBF582E43403F583E0FEAA
:1028F600A3E0FFE4FCFDC004C005C006C0079002CB
:1029060051E025E024D7F582E43403F583E0FEA305
:10291600E0FFE490053B1223DC90053F7402F0A330
:1029260014F0C2009002ACE0900541F0D007D0064A
:10293600D005D0041236F2506D9002A2E004F0B435
:1029460014089002AC740AF0800D9002A2E0B4283C
:10295600069002AC7419F090033CE0600E900251B0
:10296600E0B40107E4FDFC7F01801D900251E0FB0D
:1029760025E025E02421F582E43403F583A3A3E0D2
:10298600FEA3E0FDAC06AF0312680C900247E070B0
:102996001204F0900251E0FF900247E024FF9200FB
:1029A600126AC3126DF6900420E07017D200FF126F
:1029B6006AC3D2000F126AC390023FE0FF1261227F
:0429C6001243DF22B7
:093B4000FF1260C2900251E0FF87
:103B4900EF147003023BF3147003023CC7147003B3
:103B5900023C95146079147003023C6224056003E9
:103B6900023CFD90023FE0640170347BFF7A4B799F
:103B790001FF126335E47F01FEFDFC900014E0F8BB
:103B8900A3E0F9A3E0FAA3E0FBC31223297BFF70AA
:103B9900077A4B7905023CF87A4B7909023CF87AA5
:103BA9004B790D126331E47F01FEFDFC900014E0B6
:103BB900F8A3E0F9A3E0FAA3E0FBC31223297BFFF2
:103BC90070067A4B790580047A4B7909023CF87AB8
:103BD9004B7911126331900014A3A3E0FEA3E0FD19
:103BE900AC067F0112530B023CFD90023FE06401D9
:103BF90070337BFF7A4B7915FF126335E47F01FE41
:103C0900FDFC900014E0F8A3E0F9A3E0FAA3E0FBBF
:103C1900C31223297BFF70067A4B791980047A4AEB
:103C290079CC023CF87BFF7A4B791DE4FF126335AE
:103C3900E47F01FEFDFC900014E0F8A3E0F9A3E0A5
:103C4900FAA3E0FBC31223297BFF70067A4B79198B
:103C590080047A4A79CC023CF87BFF7A4B7921E4DB
:103C6900FF126335E47F01FEFDFC900014E0F8A328
:103C7900E0F9A3E0FAA3E0FBC31223297BFF700656
:103C89007A4B791980047A4A79CC80637BFF7A4B25
:103C99007925E4FF126335E4FFFEFDFC900014E092
:103CA900F8A3E0F9A3E0FAA3E0FBC31223297BFF01
:103CB90070067A4B792980047A4B792D80317BFF04
:103CC9007A4B7931E4FF126335E47F01FEFDFC9004
:103CD9000014E0F8A3E0F9A3E0FAA3E0FBC3122380
:103CE900297BFF70067A4B793580047A4B79397FC5
:103CF90001126335D2007F01126AC3D2001F026A22
:013D0900C3F6
:1060C200EF14603114604914604114601814603692
:1060D2002405704B90023FE0B401059003368033F3
:1060E200900335802E900337E070059003E480031F
:1060F200900332801E90023FE0B4010590033D8080
