:104AC500407661722C00434F4F4C004943455F4689
:104AD5004C5553480053455454494E47004144569C
:104AE500414E43455F53455454494E470050415349
:104AF50053574F52445F434F4E4649470049444C34
:104B050045004E2F41006D6F646500677265656EE7
:104B15005F6D696E007265645F6D696E0072656CCC
:104B2500617931004F4E004F46460072656C6179E0
:104B3500320072656C617933002D2D2D00646F6E26
:104B450000796573006E6F0050694E0050696E0004
:104B55004C6F5000624163004C6F63004F4E320052
:104B6500204F500020434C004F4E3100205374001D
:104B750068644600204F4E0064454600456E64005B
:104B850020534C004C6364004C4544006843460088
:084B95002D434600682D2D00A0
:103EEF00420303000042024100004202380000502A
:103EFF00030B3F065B4F666D7D077F6F777C395EE7
:103F0F00797148029A10203040506070005702ECCF
:103F1F00FF6F7BFF6F81FF6F8700000000000000C5
:103F2F0000000000000000570429FF6F8DFF6F9302
:103F3F00FF6F99000000000000000000000000006B
:103F4F00004202EA00004202C2000042000A0000E2
:103F5F00410230004102B5014102D9004102D100B6
:103F6F0041052E02C103C10441024F004100100060
:103F7F004104040041022A00410240004102CF00E7
:103F8F004102D000410306004102E2004104280033
:103F9F00410320004103FA004103FB0041023700B7
:103FAF0043041494848541023F02410401004102FD
:103FBF0049004102A50041042300580254000000AB
:103FCF0001000000010000000100000001000000DE
:103FDF005A0000000146029201010101000146044E
:103FEF000A000000000000410247004102AC0141FD
:103FFF000253004102CE00410400004102AB0044D5
:10400F0002D5000000004A04443F065B4F666D7DF9
:10401F00077F6F41024A004202AE000042022703AF
:10402F00084402C6000000004102330001090001EC
:10403F000800010A004202E81E1E4100070041006D
:10404F000800410009014102A40041001300410290
:06405F00AD0041022F003C
:0469F6007FF47E01AB
:1069FA00E4FDFCC3ED9FEC9E5017E4FBFA00000B8C
:106A0A00BB00010ABA03F6BBE8F30DBD00010C8016
:016A1A00E299
:016A1B002258
:10697E00E0FBA3E0FAA3E0F99000031224998982C8
:0B698E008A83E4FF1224F37F0A7E00DE
:0E699900EF1F70011E144E6004000080F322F8
:106CEC00E4FF90053BE0FEEFC39E500EED12217ABF
:0A6CFC000F740129F9E43AFA80E868
:016D0600226A
:0B64C400900594EBF0A3EAF0A3E9F0D0
:1064CF00E4FF90059AE0FEEFC39E5035900597E0EC
:1064DF00FBA3E0FAA3E0F9122134FE900594E0FB50
:1064EF00A3E0FAA3E0F9EE12217A0F900595E47577
:1064FF00F001122215900598E475F0011222158013
:01650F00C1CA
:016510002268
:10005E00A2AF9200C2AF75C7AA75C755E4F59F75DA
:0C006E00C7AA75C755759F80A20092AF0D
:01007A002263
:106E31008FAFECF5A7AF058FA675C7AA75C75543E8
:056E4100A401AFAE2228
:104D3300A2AFE433900537F0C2AFA3E591F0E4F5F9
:104D43009175C7AA75C755439F017D30FC7F041237
:104D53006E318F0B0D7F04126E318F0CE50B25E046
:104D6300FFE433FEE50C5401FDEF4DFBAA06FF54AF
:104D7300C0F9EF543FFE74F22BFB74FF3AFA7D0146
:104D83007F0C126E31EF644B600AEF64526005EFE3
:104D930064537020EEC3940F5012E964406009E934
:104DA30064806004E9B4C00C74F2800274FC2BFBD1
:104DB30074FF3AFAEAC313EB13F50BEB5401FFE567
:104DC3000C54FE4FF50C75C7AA75C755850B847532
:104DD300C7AA75C755850C8575C7AA75C755539F4F
:104DE300FE5387EF900538E0F591900537E024FFF7
:024DF30092AF7D
:014DF500229B
:106D0700E4FF90053CE0FEEFC39E500EED12217AA2
:0A6D17000F740129F9E43AFA80E84C
:016D2100224F
:10605000E4FF90058EEBF0A3EAF0A3E9F090058A47
:10606000E0F9A3E0FAA3E0900591C9F0A3EAF0A358
:10607000E9F090058DE0FEEFC39E5035900591E06C
:10608000FBA3E0FAA3E0F9122134FE90058EE0FBB9
:10609000A3E0FAA3E0F9EE12217A0F90058FE475E0
:1060A000F001122215900592E475F001122215807C
:0160B000C12E
:0160B10022CC
:106B3D00E4FF9005A6E0FEEFC39E5014EDF582E450
:106B4D008582F01222410F740229F9E43AFA80E2AB
:016B5D002215
:106E05008FAFECF5A7EDF5A675C7AA75C75543A4D1
:056E150001AEAEAF0666
:016E1A002255
:106E1B008FAFECF5A7EDF5A6AF038FAE75C7AA75CF
:066E2B00C75543A401223B
:106E5B00A2AF9201C2AF75C7AA75C75543AA40A28C
:036E6B000192AFE2
:016E6E002201
:105C7000A2AF9200E4C2AF75C7AA75C755439F0192
:105C80007D04FC7FC0126E05EF54F064F070307537
:105C9000C7AA75C75543A5047B0F7FE1126E1B751C
:105CA000C7AA75C75553A5FBE59F20E6FB75C7AA94
:105CB00075C755759F0075C7AA75C755439F8075F1
:105CC000C7AA75C755539FFE75C7AA75C75543AA7E
:105CD00007126E5BAFAA74FF60FA75C7AA75C75545
:075CE00043AA80A20092AF6D
:015CE700229A
:046F5B008F828E8310
:036F5F00E493FFB9
:016F6200220C
:10466B00900540EEF0A3EFF0900544EBF0A3EAF0D9
:03467B00A3E9F0C0
:10467E00C202900549E4F0A3F0A3F0A3F0A3F0A2C8
:10468E00AF9202C2AF900544E0FBA3E0FAA3E0F9BB
:10469E004A6011900549EBF0A3EAF0A3E9F090050A
:1046AE0033EB800E900533E0F9A3E0FAA3E090051A
:1046BE0049C9F0A3EAF0A3E9F0900547E0FEA3E0B4
:1046CE00FF4E6008900303EEF0A3EFF0900540E07C
:1046DE00FEA3E0FF4E6011ED4C600DC3EF9DFFEEAB
:1046EE009C900241F0A3EFF0E490054CF0A3F09003
:1046FE000303E0FEA3E0FF90054CE0FCA3E0FDC346
:10470E009FEC9E5038900242E02DFF900241E03C1B
:10471E00FE126F5B900549E0FBA3E0FAA3E0F9EF10
:10472E0012217A90054DE004F0700690054CE004DD
:10473E00F090054AE475F00112221580B2A20292A1
:01474E00AFBB
:01474F002247
:10667400AB07AA06ED75F080A42BFBE5F03AFAEB24
:10668400F5A6AE02EEF5A775AEFF75C7AA75C75598
:10669400439F0175C7AA75C75543A50175AF2275F8
:0866A400C7AA75C75543A40104
:0166AC0022CB
:10443F00C201900533E0F9A3E0FAA3E090053BC970
:10444F00F0A3EAF0A3E9F0900303E0FCA3E0FDAED4
:10445F00047807CEC313CE13D8F9F9E490053EF0D4
:10446F00A3F0A2AF9201C2AFED4C700302455B09FE
:10447F00E490053EF0A3F0E9FF90053EE0FCA3E0D9
:10448F00FDC39FEC9400501B900241E0FEA3E0FFA0
:10449F0012667490053FE004F070DC90053EE00476
:1044AF00F080D475C7AA75C755439F0175C7AA7504
:1044BF00C75543A50175AF21E490053EF0A3F090D9
:1044CF000303E0FEA3E0FF90053EE0FCA3E0FDC385
:1044DF009FEC9E504D900241E0FAA3E0FB2DF5A614
:1044EF00EB2DEA3CF5A790053BE0FBA3E0FAA3E038
:1044FF00F9122134F5AE75C7AA75C75543A40175D6
:10450F00C7AA75C75543AA4090053FE004F070064F
:10451F0090053EE004F090053CE475F00112221581
:10452F00809D75C7AA75C75553A5FE75C7AA75C7D0
:10453F0055539FFE7B007A007900E4900547F0A366
:0C454F00F0FDFCFFFE12466BA20192AFD3
:01455B00223D
:104B9D00E4FBF9FA900537F0A3F0A2AF9200C2AF93
:104BAD0075C7AA75C755439F017D0DFC7F04126E15
:104BBD0005AA07EA54F0FB64806003EB7051EA54D8
:104BCD000FFA7D0C7C007F04126E05A907E975F0C4
:104BDD0010A4FFEA2FFEEC35F0900537F0A3CEF0D0
:104BED00900537E0FEA3E0FF7D031221AEEF7802C2
:104BFD00CEC313CE13D8F9FF900238EEF0A3EFF029
:104C0D00EBB4800BE024DFF0900238E034FFF0EBE2
:104C1D00649070407D0EFC7F04126E05A9070D7F18
:104C2D0004126E05AA07EA540FFAE975F010A42ACA
:104C3D00FFEC35F0FE900537F0A3EFF07D03122168
:104C4D00AEEF7802CEC313CE13D8F9FF900238EE33
:104C5D00F0A3EFF075C7AA75C755539FFEA200923A
:014C6D00AF97
:014C6E002223
:0E000300AF0A74272FF582E43402F583E0FF84
:0A001100EF540F42E844F052E822D9
:0B6F2A0030000443E1012253E1FE228D
:056F9F00C2EFD2EE225A
:106B7F00120011AF058F95126F9F30EFFDE4F59561
:106B8F00AFC3EF75F010A4FFAEF0ADC2EF4DFF2213
:0562DC0090059EEDF0AD
:1062E100E49005A1F090059FE0FF120011A3E0F5F5
:1062F10095E4A3F090059EE0FF9005A1E0C39F50B7
:1063010029126F9F30EFFDAFC3EF75F010A4FFAD01
:10631100C2EF4DFFE5F08FF01222419005A1E0049C
:0D632100F0740229F9E43AFA80CAE4F59517
:01632E00224C
:10516A00E490057BF0A3F07B017A05797D90059F99
:10517A007408F0A37402F07D051262DC7F02EF2549
:10518A00E0247DF582E43405F583E0FCA3E0FD909C
:10519A00057CE02DF090057BE03CF00FEFB405DED6
:1051AA0090057BE0FEA3E0FF7C007D031221C09006
:1051BA00057BEEF0A3EFF0900238E0FEA3E0FFE4F7
:1051CA00FCFD900577122430E4FF7E10FDFC90056B
:1051DA0077E0F8A3E0F9A3E0FAA3E0FB122260C0AB
:1051EA0006C00790057BE0FEA3E0FBAA06E4F9F8F7
:1051FA00D007D0061222EB9005771224309005775B
:07520A00A3A3E0FEA3E0FFF7
:01521100227A
:08622D0090053CEEF0A3EFF038
:10623500900238E0FEA3E0FFE4FCFD90053E122449
:1062450030E4FF7E10FDFC90053EE0F8A3E0F9A3E5
:10625500E0FAA3E0FB122260C006C00790053CE00F
:10626500FEA3E0FBAA06E4F9F8D007D0061222EB5C
:1062750090053E12243090053EA3A3E0FEA3E0FF67
:0162850022F6
:0F6EC80090041BE0FCA3E0FDA3E0FEA3E0FF228B
:0A5AFA007B017F647E007D007C00CC
:0F5B040090053CEBF0A3EAF0A3E9F0A3122430E4
:105B1300126EC890054312243090053CE0FBA3E0CD
:105B2300FAA3E0F91223DB900543E0FCA3E0FDA315
:105B3300E0FEA3E0C39BFFEE9AFEED99FDEC98FC1B
:105B430090053FE0F8A3E0F9A3E0FAA3E0FBD3124A
:105B5300237D501E900543E0FCA3E0FDA3E0FEA3DC
:105B6300E0FF90053CE0FBA3E0FAA3E0F91223C1B8
:035B7300D322C377
:015B7600220C
:0C6E9600900423740CF07B017A02792B2D
:066EA200126EC80223C1BC
:10482F00EFC394304013EFD39439500D74DB2FF551
:10483F0082E43402F583E0FF22EF1224C948B92045
:10484F0048BC2D48BF4148C24248C84348CB4448A2
:10485F00CE4548D14648DD4948E34C48E94E48EF3C
:10486F004F48F55048FB52490453490154490756E4
:10487F00490A5948BF6148C26248C56348CB64487A
:10488F00CE6548D16648D46748D76848DA6948E0AA
:10489F006C48E66E48EC6F48F27048F87249047342
:1048AF0048FE74490A79000048B97F00227F4022F0
:1048BF007F77227F7C227F58227F39227F5E227F63
:1048CF0079227F71227F6F227F74227F30227F3087
:1048DF00227F30227F38227F54227F37227F5C2233
:1048EF007F3F227F73227F73227F50227F77227F29
:0E48FF0078227F31227F6D227F3E227F6E2243
:106D220075803F75B1C475B2087590D775B3687533
:0B6D3200B485E4F5B0F5AC75AD0122AE
:066F7B00EF24FF929222B8
:066F8100EF24FF929122B3
:066F8700A291E433FF2299
:066F8D00EF24FF929022A8
:066F9300EF24FF928022B2
:066F9900A280E433FF2298
:106E6F00438E1053890F438910758DBF758B28D2B0
:046E7F00ABD28E22E2
:03001B000263D4A9
:1063D400C0E0C0F0C083C082C0D075D000C000C08F
:1063E40004C005C006C007758DBF758B2890041BBB
:1063F400E0FCA3E0FDA3E0FEA3E02401FFE43EFEF5
:10640400E43DFDE43CFC90041B122430D007D0068C
:10641400D005D004D000D0D0D082D083D0F0D0E04A
:016424003245
:03005B00025D5CE7
:105D5C00C0E0C0F0C083C082C0D075D000C005C008
:105D6C0006C007C2EFAFC3EF75F010A4FFAEF0ADE5
:105D7C00C2EF4DFFAD0AEDC454F0246DF582E4344E
:105D8C0002F583AD0975F002ED12246DEEF0A3EF70
:105D9C00F00509AF09EFC394084013750900050A13
:105DAC00AF0AEFD394014003750A00120003750883
:105DBC0001D007D006D005D0D0D082D083D0F0D07F
:025DCC00E032C3
:0F6ED70090011CA3E0FAA3E0F5828A830224F362
:0C6F1E0090011CEBF0A3EAF0A3E9F022C4
:105B7700C201E4900537F0900537E0FFC394035066
:105B87006B126ED79201900537E0FF24D2F582E4BD
:105B97003402F583E0FEA201E433FD6E603774E85A
:105BA7002DF582E43402F583E0FE74002FF582E4DC
:105BB7003400F583E004F0C39E4029A201E433FFDB
:105BC700900537E0FE24D2F582E43402F583EFF046
:105BD70074002E8006900537E02400F582E4340037
:0C5BE700F583E4F0900537E004F0808BBB
:015BF300228F
:10455C00125B777B017A0279DE7F32125AFE92006F
:10456C00E4FF30005BEF25E025E024B7F582E4346E
:10457C0002F583E0C394025011EF25E025E024B747
:10458C00F582E43402F583E004F0EF25E025E02425
:10459C00B6F582E43402F583E06025EF25E025E0F2
:1045AC0024B8F582E43402F583E0C394FF5011EF94
:1045BC0025E025E024B8F582E43402F583E004F02C
:1045CC0074D22FF582E43402F583E06036EF25E0F7
:1045DC0025E024B7F582E43402F583E0B40222EF3F
:1045EC0025E025E024B6F582E43402F5837401F06D
:1045FC00EF25E025E024B9F582E43402F58374015B
:10460C00F08042EF25E025E024B8F582E43402F591
:10461C0083E4F0EF25E025E024B6F582E43402F5DE
:10462C0083E06031EF25E025E024B6F582E4340226
:10463C00F583E4F0EF25E025E024B9F582E43402BB
:10464C00F5837402F0EF25E025E024B7F582E4341D
:0E465C0002F583E4F00FEF6403600302456E85
:01466A00222D
:106A1C00EF25E025E024B9F582E43402F583E0B4F7
:106A2C000112EF25E025E024B9F582E43402F58368
:066A3C00E4F0D322C322A6
:106A4200EF25E025E024B9F582E43402F583E0B4D1
:106A52000212EF25E025E024B9F582E43402F58341
:066A6200E4F0D322C32280
:046D3D007D3C7F0218
:106D4100EF25E025E024B8F582E43402F583E0C3C1
:076D51009D4002D322C32282
:1065110090024A7428F0900339E0FEA3E0FF7C006A
:0F6521007D0A1221AE900235EEF0A3EFF07F035A
:10653000EFC394035016EF75F004A424B6F9740267
:1065400035F0FA7B0190053C7404800B7B017A02E4
:0E65500079B690053C740CF0E4FD126D072244
:0D6F040074D22FF582E43402F583E01322ED
:106D5800E4FFFEEE25E025E024B6F582E43402F5F2
:0A6D680083E060010F0EEEB403E9B2
:016D720022FE
:046FA400EF24FF22B5
:096F40007BFF7A6F79A4026F1E39
:106C5C007B017A0279B690053C740CF0E4FD126D60
:0E6C6C00077A0279D290053B7403F0026CECBB
:1064760090056EEBF0A3EAF0A3E9F0122479898285
:106486008A837F011224F390056EE0FBA3E0FAA352
:10649600E0F990000312249989828A837F011269A8
:1064A6009290056E12697E90056EE0FBA3E0FAA35A
:0E64B600E0F912247989828A83E4FF0224F33C
:08628600E0FBA3E0FAA3E0F93C
:10628E0090056EEBF0A3EAF0A3E9F012247989826F
:10629E008A83E4FF1224F390056E12697E90056ED8
:1062AE00E0FBA3E0FAA3E0F912247989828A837FC6
:1062BE000112699290056EE0FBA3E0FAA3E0F9905B
:0E62CE00000312249989828A837F010224F33F
:0D5BF40090053EE0FBA3E0FAA3E0F97D017F
:0B5C0100900573EBF0A3EAF0A3E9F0BC
:105C0C00E4A3F0AF05900573E0FBA3E0FAA3E0F981
:105C1C0090000312249989828A831224F3900573CD
:105C2C00E0FBA3E0FAA3E0F912247989828A837F4E
:105C3C0001126992900573E0FBA3E0FAA3E0F990DE
:105C4C0000061224991224EF900576EFF09005735C
:105C5C00E0FBA3E0FAA3E0F912247912698C900519
:035C6C0076E0FFE0
:015C6F002212
:0B66AD0090053EEBF0A3EAF0A3E9F03B
:1066B800E4A3F0A3F0900541E0FF25E0F0E0FEC080
:1066C80006125BF4D0E04F900541F0A3E004F0E03F
:0D66D800C3940840E0125BF4900541E0FF20
:0166E5002292
:08632F00E0FBA3E0FAA3E0F992
:0E63370090056EEBF0A3EAF0A3E9F0A3EDF001
:10634500C201E4A3F090056EE0FBA3E0FAA3E0F937
:10635500A3E0FFC41313135401FD125C01900571F2
:10636500E0FF25E0F0A3E004F0E0C3940840D690F8
:0C637500056E125BF7EF24FF9201A201FD
:0163810022F9
:0B5A7900900569EBF0A3EAF0A3E9F050
:105A840090000D12214D90056CF0E4A3F09005698F
:105A9400E0FBA3E0FAA3E0F990000C12214DFF9083
:105AA400056DE0C39F504E126476900569E0FBA338
:105AB400E0FAA3E0F9A3E0FD126337900569E0FB87
:105AC400A3E0FAA3E0240FF9E43AFA90056DE07E2E
:105AD4000029F9EE3AFA122134FD90056912633176
:105AE40090056CE024FEF090056912628690056DC5
:055AF400E004F08098C1
:015AF900228A
:105360007B017A0279EC90053E7439F0A3743FF02A
:065370007438A3F07D0378
:0E53760090053AEBF0A3EAF0A3E9F0A3EDF006
:105384009005667401F0A37405F0A3743EF0E4FF85
:1053940090053DE0FEEFC39E5033900566E0FBA30D
:1053A400E475F00112222BA9F0FA122134FE9005C3
:1053B4003AE0FBA3E0FAA3E0240FF9E43AFAEF7C25
:1053C4000029F9EC3AFAEE12217A0F80C3900566AF
:1053D400E4F0A3F0A3F090053AE0FBA3E0FAA3E025
:1053E400240AF9E43AFA122134440112217A90058C
:1053F4003A125F8490053AE0FBA3E0FAA3E0F902D5
:025404005A79D3
:0E5FEB0090053CEBF0A3EAF0A3E9F0A3EDF083
:105FF9009005687401F0A37405F0A37440F0E4FF00
:1060090090053FE0FEEFC39E5033900568E0FBA387
:10601900E475F00112222BA9F0FA122134FE900541
:106029003CE0FBA3E0FAA3E02413F9E43AFAEF7C9D
:106039000029F9EC3AFAEE12217A0F80C39005682B
:06604900E4F0A3F0A3F057
:01604F00222E
:106DC000E92413F9E43AFA7E00E92DF9EE3AFA12D1
:076DD0002134448002217A06
:104EB90090054074FFF0A3744BF0A3743EF07B019E
:044EC9007A047929C5
:0B4ECD0090053DEBF0A3EAF0A3E9F034
:104ED80090000C12214D14900543F0900540E0FB22
:104EE800A3E0FAA3E0F9122134FF6041900543E002
:104EF800C364809480403612482F90053DE0FBA3A0
:104F0800E0FAA3E02413F9E43AFA900543E0FE142A
:104F1800F0EEFD3395E0FCE92DF9EA3CFAEF1221B9
:104F28007A900541E475F00112221580AE90054390
:104F3800E0C364809480402890053DE0FBA3E0FA3C
:104F4800A3E02413F9E43AFA900543E0FF14F0EFE4
:104F58003395E0FEE92FF9EA3EFAE412217A80CD92
:014F68002226
:085F8400E0FBA3E0FAA3E0F941
:105F8C00900569EBF0A3EAF0A3E9F0900569E0FB5A
:105F9C00A3E0FAA3E0F91264769005697D481263D8
:105FAC002F900569E0FBA3E0FAA3E0F9401C9000F8
:105FBC000A12214DFD126337900569E0FBA3E0FA4C
:105FCC00A3E0F990000974018004900009E4122107
:0F5FDC008C900569E0FBA3E0FAA3E0F902628E66
:0E6756007B01E0249AF582E43402F583E0FD35
:10676400900538EBF0A3EAF0A3E9F0900538E0FBDC
:10677400A3E0FAA3E0240BF9E43AFA122134540F0B
:0767840012217A4D02217A77
:0F6EE600E9240BF9E43AFA122134440102217A2B
:0F6EF500E9240BF9E43AFA12213454FE02217A0F
:1069CF00900537EBF0A3EAF0A3E9F0900537E0FB71
:1069DF00A3E0FAA3E0240BF9E43AFA12213454FEAF
:0769EF0012217A4D02217A0A
:0A570D007B0190053C746CF07D03F5
:10571700900538EBF0A3EAF0A3E9F0A3EDF07E00E3
:105727007F047D00900538E0FBA3E0FAA3E0240F97
:10573700F9E43AFA1224F57E007F047DFF900538DC
:10574700E0FBA3E0FAA3E02413F9E43AFA1224F504
:105757007E007F057D00900538E0FBA3E0FAA3E01B
:105767002409F9E43AFA1224F590053BE0FF900585
:1057770038E0FBA3E0FAA3E0F990000CEF12218CCC
:1057870090053CE090000D12218C90000B740112E3
:0D579700218C90000A740112218C025F8C9D
:105EAD0090053BEBF0A3EAF0A3E9F090053BE0FB96
:105EBD00A3E0FAA3E0F990000EE412218C126476AF
:105ECD0090053B7D4912632F90053BE0FBA3E0FA63
:105EDD00A3E0F99000094019740112218C1266ADEE
:105EED0090053BE0FBA3E0FAA3E0F990000EEF80F4
:105EFD0001E412218C90053B12628690053BE0FB7C
:0E5F0D00A3E0FAA3E0F990000E12214DFF224E
:086F630090000E12214DFF22E7
:096F490090000912214D24FF22E1
:0B52120090053BEBF0A3EAF0A3E9F0ED
:10521D00C200E4A3F090053BE0FBA3E0FAA3E0F9A4
:10522D0090000C12214DFF90053EE0FEC39F506A89
:10523D00E92413F9E43AFAEEFF7E0029F9EE3AFA81
:10524D00122134FD90053BA3E0FAA3E0240FF9E40D
:10525D003AFAE92FF9EE3AFA1221346D60339005DE
:10526D003BA3E0FAA3E02413F9E43AFAA3E029F909
:10527D00EE3AFA122134FD90053BA3E0FAA3E024A7
:10528D000FF9E43AFAE92FF9EE3AFAED12217AD252
:10529D000090053EE004F002522230000E90053BD6
:0B52AD00E0FBA3E0FAA3E0F9125A793D
:0152B80022D3
:106D730090000B12214DFF90000A12214D6F600A03
:0B6D830090000AEF12218C125F8C229E
:0660B2007B017A0479294C
:1060B800900538EBF0A3EAF0A3E9F0900538E0FB8F
:1060C800A3E0FAA3E0F990000912214D601F125EC7
:1060D800AD900538E0FBA3E0FAA3E0F9126D7390E8
:1060E8000538E0FBA3E0FAA3E0F902521290053864
:1060F800125F84900538E0FBA3E0FAA3E0F9900072
:0A6108000912214D6003125A79229A
:1047500090052EE075F008A42422F582E43403F5D8
:1047600083A3A3E0FEA3E0FDAC067B017A0279EC13
:1047700090053BEBF0A3EAF0A3E9F0A3ECF0A3ED86
:01478000F048
:10478100E4A3F090053EE0FEA3E0FF7C007D0A1269
:1047910021C0740B2DF58274033CF583E0FF900575
:1047A1003BE0FBA3E0FAA3E02413F9E43AFA900515
:1047B10040E0FE04F0EE7C0029F9EC3AFAEF122118
:1047C1007A90053EE0FEA3E0FF7D0A1221C090052C
:1047D1003EEEF0A3EFF090053BE0FBA3E0FAA3E08F
:1047E100F990000C12214DFF900540E0C39F500A43
:1047F10090053EE07002A3E0708990053BE0FBA3C9
:10480100E0FAA3E0F990000C12214DFF900540E081
:10481100C39F5019E92413F9E43AFAE0FF04F07E4A
:0D48210000E92FF9EE3AFAE412217A80CD79
:01482E002267
:0A671F00FDF09002C4E0FEA3E0FFCD
:04672900AB07AA060A
:10672D00ED6AFAE4FDEA30E70FEB25E0FFEA3364AA
:10673D0010FAEF6421FB8007EB25E0FBEA33FA0D3D
:08674D00EDB408E1AE02AF0358
:016755002221
:0669A700AC06AD07E0FFA5
:1069AD00900232E0C3E494015011E0FE04F074272C
:1069BD002EF582E43401F583EFF02290023E74014E
:0269CD00F022B6
:106B5E00AD07AC06EF4E60188D828C83E493601007
:106B6E000DED70010C14F582E493FF1269AD80E80F
:016B7E0022F4
:04611200AB07AA0627
:10611600E4900545F07C007D0AAF03AE021221C073
:10612600ED2430FF900545E0FE04F074402EF58224
:10613600E43405F583EFF07C007D0AAF03AE02126E
:1061460021C0AA06AB07EB4A6009900545E0C39457
:106156000540C2900545E0601214F02440F582E443
:0B6166003405F583E0FF1269AD80E80E
:01617100220B
:106DD700AB07AA067E4A7FC5126B5EAE02AF0312EF
:076DE7006B5E7F2C0269AD19
:106B9F0090053EECF0A3EDF0126DD790053EE0FEB0
:106BAF00A3E0FF126B5E7F0D1269AD7F0A0269AD24
:106BBF0090053EECF0A3EDF0126DD790053EE0FE90
:106BCF00A3E0FF1261127F0D1269AD7F0A0269AD5A
:1067F50090052EE014601424FE601514601724FB28
:106805005018240970197E4A7FCB227E4A7FD022F8
:106815007E4A7FDA227E4A7FE2227E4A7FF2227E0C
:046825004B7F022281
:106BFF00E4FE740B2EF582E43403F583E0B507074A
:0E6C0F00EE12217A7F01220EEEB40AE67F001B
:016C1D002254
:0B490D0090053EEBF0A3EAF0A3E9F0F8
:10491800E4900546F0A3F0A3F0A304F0E4A3F0A309
:10492800F0900544F090053EE0FBA3E0FAA3E0F91F
:1049380090000C12214DFF900544E0FEC39F4003F8
:104948000249C8E9240FF9E43AFAEE7E0029F9EEA3
:104958003AFA122134FE700D900546E07002FF22EB
:104968009005478038900547E0700EAF067B017AC6
:10497800057945126BFFEF70037F0022900545E033
:10498800FF7E00900548E0FCA3E0FD1221AE9005F3
:104998004BE02FF090054AE03EF09005467401F098
:1049A800900548E0FEA3E0FF7C007D0A1221AE904E
:1049B8000548EEF0A3EFF0900544E004F002492D1D
:1049C800900546E07002FF2290054AE0F9A3E0FF57
:1049D800900541E0FBA3E0FAA3E0C98FF012224161
:0249E8007F014D
:0149EA0022AA
:106A6800900400E0700690024AE060037F002290E4
:106A7800052EE0FF600864016004EFB403047F01A1
:056A880080027F0022E6
:0865F20090053AEEF0A3EFF072
:1065FA00126A68EF60259005417401F0A37405F0F2
:10660A00A3743CF012490DEF601190053AE0FEA325
:10661A00E0FFA3E0FCA3E0FD026BBF90053AE0FEB9
:0A662A00A3E0FF7C4B7D07126B9F7D
:016634002243
:1055DC00E4900232F090023EF0A2AF33FFC2AF90E3
:1055EC000320E0900537F09003FAE0900538F09036
:1055FC0003FBE0900539F0EF24FF92AF1267F5AC96
:10560C0006AD077E4B7F0B126B9F7E4B7F107B0191
:10561C007A0479291265F27E4B7F1A7B017A027922
:10562C00EC1265F27E4B7F22900537E060067C4BD6
:10563C007D2980047C4B7D2C126B9F7E4B7F3090A0
:10564C000538E060067C4B7D2980047C4B7D2C1258
:10565C006B9F7E4B7F37900539E060067C4B7D2934
:09566C0080047C4B7D2C026B9F35
:1068290090023EE0702D900232E060279002E7E08E
:106839007021A2AF33FFC2AFAE917401F090025242
:10684900F0E4F591C2F9900127E0F59A8E91EF24D1
:03685900FF92AFFC
:01685C002219
:106A8D00E4900299F0900426F0900409F090023100
:106A9D00F0900250F074FF9002C4F0A3F0E4900463
:056AAD0041F0A3F022FE
:086DA800FF90053AE03400FE03
:106DB000AD07AC068D828C83E0FEA3E0FDEDFF22E3
:10567500900545EEF0A3EFF0F5828E83A3E0FFE4FD
:10568500FCFDFE781012238EC004C005C006C007BD
:10569500900545E0FEA3E0F5828E83E0FFE4FCFD86
:1056A500FE781812238ED003D002D001D000EF4B24
:1056B500FFEE4AFEED49FDEC48FCC004C005C006FE
:1056C500C007900545E0FEA3E0F5828E83A3A3E025
:1056D500FFE4FCFDFE780812238ED003D002D00132
:1056E500D000EF4BFBEE4AFAED49F9EC48F890058E
:1056F50045E0FEA3E0F5828E83A3A3A3E0FFEB4F75
:08570500FFEAFEE9FDE8FC22C9
:086CB4007BE77A037D017C00FF
:106CBC00C3EF9DEE9C400AD3EF9BEE9A50037F01ED
:046CCC00227F002201
:082A1E0090053AEEF0A3EFF081
:102A2600F5828E83E0640260037F0022E490053C19
:0B2A3600F090053CE0FFC39404505DED
:102A4100EF75F004A4FF90053BE02401FD90053AE9
:102A5100E03400CD2FFFED35F0FE125675900541A3
:102A6100122430E4FFFEFDFC900541E0F8A3E0F9FB
:102A7100A3E0FAA3E0FBC312237D6016E47FE77EA7
:102A810003FDFC900541E0F8A3A3A3E0D312237D4D
:052A910040037F00225C
:102A960090053CE004F0809990053AE0FEA3E0FF43
:102AA6002411F582E43EF583E07003022BE1EF2466
:102AB60012F582E43EF583E0D3945A4003022BE1FB
:102AC60090053AA3E02413F582E43EF583E0D3941F
:102AD600014003022BE1EF2414F582E43EF583E086
:102AE600D394014003022BE190053AA3E02415F5A7
:102AF60082E43EF583E0D394014003022BE1EF2408
:102B060016F582E43EF583E0D394014003022BE1FF
:102B160090053AA3E02417F582E43EF583E0D394CA
:102B2600014003022BE1EF2418FFE43EFE126DB0D4
:102B3600D3EF94E7EE94034003022BE190053AE0CD
:102B4600FEA3E0FF241AF582E43EF583E0D3940762
:102B56004003022BE1EF241BF582E43EF583E0D32C
:102B66009407507790053AA3E0241CF582E43EF5DD
:102B760083E0D394015064EF241DF582E43EF5838F
:102B8600E0D39401505590053AA3E0241EF582E463
:102B96003EF583E0D394035042EF241FF582E43ED2
:102BA600F583E0D39401503390053BE02420126D69
:102BB600A8D3EF94E7EE9403502190053BE024223E
:102BC600126DA8126CB4EF601290053BE02424123B
:102BD6006DA8D3EF945AEE940040037F0022E49050
:102BE600053CF090053CE0FFC394075026EF2426F1
:102BF600FFE433FE90053AE0FCA3E02FF582EC3EBD
:102C0600F583E0D3940140037F002290053CE00465
:102C1600F080D0E490053CF090053CE0FFC39406BC
:102C26004003022CE1EF25E0FFE433FE90053BE094
:102C360024ABFD90053AE03400CD2FFFED3EFE12A9
:102C46006DB090053DEEF0A3EFF090053CE025E079
:102C5600FFE433FE90053BE024B7FD90053AE034EF
:102C660000CD2FFFED3EFE126DB090053FEEF0A3B6
:102C7600EFF090053CE0C39404501BA3E0FEA3E0F4
:102C8600FF126CB4EF600CA3E0FEA3E0FF126CBC75
:102C9600EF70277F002290053DE0FEA3E0FF7B5A00
:102CA6007A00E4FDFC126CBCEF600CA3E0FEA3E02E
:102CB600FF126CBCEF70037F002290053FE0FEA37D
:102CC600E0FFD390053EE09F90053DE09E40037FE8
:102CD600002290053CE004F0022C1E90053AE0FE2E
:102CE600A3E0FF24C3F582E43EF583E0D3940150CC
:102CF6000FEF24C4F582E43EF583E0D3945A4003F3
:102D06007F002290053AE0FEA3E024D4F582E43E5B
:102D1600F583E0FE702F90053C74C5F090053CE00D
:102D2600FFD394D8501C90053AE0FCA3E02FF5821F
:102D3600E43CF583E060037F002290053CE004F06C
:102D460080DA7F0122EE64016003022DEA90053BE2
:102D5600E024C5126DA8D3EF94E7EE940340030276
:102D66002DEA90053BE024C7126DA8D3EF94E7EE59
:102D76009403507090053BE024CC126DA8D3EF94D9
:102D8600E7EE9403505E90053BE024D0126DA81246
:102D96006CB4EF604F90053AE0FEA3E0FF24D2F555
:102DA60082E43EF583E0D394015039EF24D3F582D3
:102DB600E43EF583E0D39401502A90053AA3E0243B
:102DC600D5F582E43EF583E0D394015017EF24D67F
:102DD600F582E43EF583E0FF7E007B637A00126CA9
:102DE600BCEF70037F002290053BE024C9126DA85A
:102DF600EF4E704B90053AE0FEA3E0FF24CBF58240
:102E0600E43EF583E07038EF24CEF582E43EF583A8
:102E1600E0702C90053AA3E024CFF582E43EF583DA
:102E2600E0701CEF24D7F582E43EF583E070109045
:102E3600053AA3E024D8F582E43EF583E060037FFB
:042E460000227F01E6
:012E4A002265
:1066E600900426E0FF900409E0FDE490053DF0A348
:0366F600F07B0135
:1066F900900453EFF0900443EDF09002B0EBF0906A
:10670900053DE0900298F090053EE09002A3F090DC
:0667190000117401F022E2
:104C6F00900298E060047FD980027F00900537EFB3
:104C7F00F074FFFDFCA37403F0A37421F0E4900221
:104C8F0032F090023EF07FA61269AD900453E0FF20
:104C9F001269AD7FFF7EFF900453E0FD12672990EC
:104CAF0004431269A7AF05AE04900443E0FD1267F9
:104CBF00299002B01269A7AF05AE049002B0E0FDD3
:104CCF00126729AC06AD07900537E0FF1269ADAF4B
:104CDF0005AE04900537E0FD126729AC06AD07E479
:104CEF00F9900537E0FFE9C39F502FA3E0FEA3E043
:104CFF0029F582E43EF583E0FF1269ADAF05AE04FE
:104D0F00900538E0FCA3E029F582E43CF583E0FD53
:104D1F00126729AC06AD070980C7ECFF1269ADAF6A
:044D2F00050269AD63
:1050C1009005387403F0A37421F0900424E0FFB438
:1050D1004710900403E0FD90053D7401F0E4A3F056
:1050E1008060900424E06453705B7E047F54122A34
:1050F1001EEF7015900424E0FF900403E0FDE4909E
:10510100053DF0A3F07B02804FE4FF74542FF5823C
:10511100E43404F583E0FE900538E0FCA3E02FF5CC
:1051210082E43CF583EEF00FEFB4D9DF12443F90F7
:105131000424E0FF900403E0FDE490053DF0A304A6
:10514100F0E4FB8013900424E0FF900403E0FDE40D
:1051510090053DF0A3F07B011266F9E4900425F07F
:08516100900424F0900403F017
:015169002223
:10406600900538EFF0900425E060030241D67B010D
:104076007A0279A7126EA2900299E0B40700400373
:104086000241D3904090F82828730240A50240BE12
:104096000240E802410102414B02418102419390F4
:1040A6000538E064A560030241D690029904F074D5
:1040B600FF9002C4F0A3F022900538E0FF64476049
:1040C60008EF645360030241D1900538E09004265E
:1040D60012671F9002C4EEF0A3EFF09002997402EB
:1040E600F022900538E090040912671F9002C4EE92
:1040F600F0A3EFF09002997403F022900538E0FDEA
:104106009002311267209002C4EEF0A3EFF0900403
:1041160026E0FFB44706900538E0700CEFB4530E66
:10412600900538E064D960061266E60241D3E49051
:104136000250F0900538E060047F0480027F05900D
:104146000299EFF022900538E0FD900250E0FF045E
:10415600F074542FF582E43404F583ED1267209051
:1041660002C4EEF0A3EFF0900231E0FF900250E0BF
:10417600C39F405C9002997405F022900538E09048
:104186000441F0A3E4F09002997406F022900538F9
:10419600E0FF900441E0FEA3E04FFF900441EEF003
:1041A600FEA3EFF09002C4E0B5061DA3E0B5071824
:1041B600900426E0900424F0900409E0900403F0B3
:1041C6009004257401F080031266E68000126A8D61
:0141D60022C6
:10692500E4FFA2AF33FEC2AF900248E0FD9002A69D
:10693500E06D6014E0FF04F0741C2FF582E4340070
:0D694500F583E012217A7F01EE24FF92AF6E
:016952002222
:10642500A2AFE433FFC2AF900012E0FEE4F0EF2428
:10643500FF92AFAF06EE6003126A8D900299E0609D
:10644500107B017A0279A77FFA125AFE5003126A6D
:106455008D7B017A057937126925EF600A9005373A
:10646500E0FF12406680EA900425E060031250C107
:016475002204
:106CD000A2AFE433FFC2AF90031FE0FEE4F0EF2465
:0B6CE000FF92AFAF06EE600312005EF3
:016CEB002286
:10540600A2AFE433FBC2AFAA91E4F59143904053B7
:10541600B3BF53B4BF43800443B10453B2FB759189
:1054260002E5A154F04405F5A1E4F59175C4807533
:10543600C6FF75C5F775F850C2F9C2F875C488433A
:105446009C019002E7F0900252F0900232F0900236
:105456003EF0900248F09002A6F0900012F0900400
:1054660025F0900424F0900403F0900011F09002CF
:1054760098F09002A3F090026CF090031FF0126A6D
:105486008D90041F12243C000000009002A71224F5
:105496003C00000000AF028F91AF03EF24FF92AFF4
:0154A60022E3
:1065AB00126425126CD09002E7E0701D900011E090
:1065BB006017124C6FE4900011F09002A3E0900270
:1065CB006CF0E49002A3F0801A9002E7E070177B66
:1065DB00017A04791F7FE87E03FDFC125B045006F1
:0765EB001255DC12682922A1
:10695300900248E004FE9002A6E0B50607900012FC
:106963007401F022900248E0241CF582E43400F51F
:0A69730083EFF0AF06900248EEF04B
:01697D0022F7
:03007B00025DCE55
:105DCE00C0E0C083C082C0D075D000C005C006C080
:015DDE0007BD
:085DDF00AD9175910030F80D43
:0D5DE700900536E59AF0C2F8E0FF1269530E
:105DF40030F934C2F9900232E0FF900252E0C39FBE
:105E04005013E0FF04F074272FF582E43401F58386
:105E1400E0F59A80129002E7E4F090026CE06007EB
:0B5E2400E4F090031F04F0AF058F9125
:0F5E2F00D007D006D005D0D0D082D083D0E032BB
:0F374600900537EBF0A3EAF0A3E9F0A3122430CB
:10375500C201900542E0FF126A42400302382890F8
:103765000537E0FBA3E0FAA3E0F91223A190053A9F
:10377500E0F8A3E0F9A3E0FAA3E0FBC312237D4040
:1037850003023807900544E0FFE4FCFDFE90053A8E
:10379500E0F8A3A3A3E02FFFEE3AFEED39FDEC38E8
:1037A500FC900537E0FBA3E0FAA3E0F91223DBC3A5
:1037B50012237D402D900537E0FBA3E0FAA3E0F945
:1037C500C0031223A1C007900544E0FBD007C3EF57
:1037D5009BFFEE9400FEED9400FDEC9400FCD003FD
:1037E500801990053AE0FCA3E0FDA3E0FEA3E0FF0D
:1037F500900537E0FBA3E0FAA3E0F91223C1D2015B
:10380500802130001E90053EE0FCA3E0FDA3E0FE14
:10381500A3E0FF900537E0FBA3E0FAA3E0F912234C
:10382500C1D201900542E0FF7D0A126D41502990F9
:103835000542E0FF25E025E024B8F582E43402F5F1
:1038450083E024FEF0EF25E025E024B9F582E43499
:1038550002F583E4F0023764900543E0FF126A4203
:103865004003023935900537E0FBA3E0FAA3E0F900
:103875001223A190053EE0F8A3E0F9A3E0FAA3E046
:10388500FBD312237D5003023914900544E0FB90CD
:10389500053EE0FCA3E0FDA3E0FEA3E09BFFEE9464
:1038A50000FEED9400FDEC9400FC900537E0FBA3D1
:1038B500E0FAA3E0F91223DBD312237D5031900502
:1038C50037E0FBA3E0FAA3E0F9C003C002C0011290
:1038D50023DB900544E0FFE4FCFDFEEB2FFFEE3A11
:1038E500FEED39FDEC38FCD001D002D003801990F3
:1038F500053EE0FCA3E0FDA3E0FEA3E0FF90053755
:10390500E0FBA3E0FAA3E0F91223C1D20180213044
:10391500001E90053AE0FCA3E0FDA3E0FEA3E0FF56
:10392500900537E0FBA3E0FAA3E0F91223C1D20129
:10393500900543E0FF7D0A126D415029900543E053
:10394500FF25E025E024B8F582E43402F583E02480
:10395500FEF0EF25E025E024B9F582E43402F58395
:07396500E4F002386AA20140
:01396C002238
:046B1B00D200E4FFC1
:106B1F00EF14600B0470167B017A0279EC80067B10
:0E6B2F00017A047929A200E433FD1269CF2215
:0B685D00A3A3E0FEA3E0FDAC06E4FFF7
:10686800900537ECF0A3EDF0EF14600B0470197B82
:10687800017A0279EC80067B017A04792990053740
:09688800E0FCA3E0FD12477022C0
:0A54A70090000CA3A3E0FEA3E0FFB9
:1054B10090053AEEF0A3EFF090053AE0FEA3E0FF8D
:1054C1007C037DE81221C090053AECF0A3EDF09049
:1054D100053AE0FAA3E0FB7C007D0AFFAE0212214F
:1054E100C074442DF58274043CF583E0900540F0CE
:1054F1007C007D0AAF03AE021221C07C007D0A123E
:1055010021C074442DF58274043CF583E09005417B
:10551100F090053AE0FEA3E0FF7C007D641221C01B
:105521007C007D0A1221C074442DF58274043CF57F
:1055310083E0900542F07B017A0279EC7D03025F02
:01554100EB7E
:046382007BFFE4FFBA
:1063860090053AEBF0A3EAF0A3E9F0EF14602004DD
:10639600703B90053AE0F9A3E0FAA3E0900540C906
:1063A600F0A3EAF0A3E9F07B017A0279EC801B9076
:1063B600053AE0F9A3E0FAA3E0900540C9F0A3EAA4
:0E63C600F0A3E9F07B017A047929124ECD2272
:0A52B900900537ECF0A3EDF0AB0711
:1052C300900537E0FEA3E0FF7C037DE81221C09048
:1052D3000537ECF0A3EDF0E4FA900537E0FEA3E028
:1052E300FF7C007D0A1221C0740B2DF58274033CF0
:1052F300F583E0FF74392AF582E43405F583EFF092
:10530300900537E0FEA3E0FF7C007D0A1221C090E8
:105313000537EEF0A3EFF00AEAB403BD90053AE0D7
:105323004480F0A3E0B43F02E4F0EB14600B04709C
:105333002B7B017A0279EC80067B017A0479299030
:105343000539E0900540F090053AE0900541F09072
:0C535300053BE0900542F07D03125FEB8B
:01535F00222B
:106C7A00EFC39403400122EF14600A14600A24024D
:0D6C8A007009A29422A28422A28522C322B6
:106C1E009002CFE06003E4A3F0C283E49002CFF0D1
:0F6C2E00900320F0C2979003FAF0C2B0A3F022B7
:1068F6007D6D9003E6A3E06DFD9003E6E06DFD90EF
:1069060003E8A3E06DFD9003E8E06DFD9003F3E07E
:0E6916006DFD9003F5E06DFD9003F7E06DFF61
:016924002250
:0261D200AB051B
:1061D400E4FCFD900539122430EB601D900539E094
:1061E400FCA3E0FDA3E0FEA3E0FFE47B18FAF9F8CA
:1061F400122260900539122430E47FFF7EFFFDFCFB
:10620400900539E0F8A3E0F9A3E0FAA3E0FBD31288
:10621400237D400A90053912243C0000FFFF9005BD
:0862240039A3A3E0FEA3E0FF93
:01622C00224F
:106EA8009003E8E0FEA3E0FF9003F3E0FD0261D267
:106EB8009003F1E0FEA3E0FF9003F4E0FD0261D24D
:076E8300E49003EAF0A3F024
:0C6E8A00E49003ECF09003F8F0A3F02279
:106AB2001268F6900537EFF0126EA89003EAEEF036
:106AC200A3EFF0A37401F0900537E09003F8F0F41F
:026AD200A3F02F
:016AD400229F
:106635001268F6900538EFF09003ECE0602F9003B8
:10664500E8E07002A3E06025126EA89003EAE0B5C9
:10665500061BA3E0B50716900538E0FF9003F8E0A8
:0E666500B5070AEFF4FFA3E0B50702D322C386
:016673002204
:102E4B00E4900537F0C2007B017A037921900547A6
:102E5B00F0A374D9F07D007C017F007E8012466B5D
:102E6B00900321E064027003022FDC7402F0A312C2
:102E7B00243C0000000190032612243C00000001BA
:102E8B0090032A12243C0000000190032E12243CD4
:102E9B00000000019003327446F09003347401F08B
:102EAB00A3F0A3F0A3F0A3F0E4A3F0A3F090033CF2
:102EBB00F090033BF090033D04F0E490033FF0A34C
:102ECB0004F0E4A3F0A3F090034704F0A3F0A3F005
:102EDB00A3F0A3F0A3F0E4A3F0A3F0A312243C000F
:102EEB00000000900343E4F0A3740AF0E490035352
:102EFB00F0900537F0900537E0FFC3941E501DEF9F
:102F0B0025E025E02454F582E43403F58312243CB8
:102F1B0000000000900537E004F080D9E490033EF8
:102F2B00F09003CCF0A304F0A3E4F0A304F0A3E42B
:102F3B00F0A304F0A3E4F0A304F09003D6E4F0A311
:102F4B0004F09003D4E4F0A304F09003D87403F0DE
:102F5B00A374E7F0A37403F0A374E7F0A3E4F0A366
:102F6B0074C8F0A3E4F0A3743CF09003E2E4F0A384
:102F7B00745AF09003E0E4F0A3745AF0900345E424
:102F8B00F0A3741EF09003E47401F0A37432F0907C
:102F9B000333F09003E6E4F0A3747BF0A3E4F0A317
:102FAB0004F0E4A3F0A3F0A3F0A37403F0A374E77D
:102FBB00F0E4A3F0A3F0A3F0A304F0E4A3F0A3F0D8
:102FCB00A304F0A3F0A37403F0E4A3F0A3F0124462
:102FDB003F9003F5E0D3940140057401F0D20090CB
:102FEB0003F5E0600302307F9003E6E07002A3E09C
:102FFB0070539003E8E07002A3E070499003EAE09D
:10300B007002A3E0703F9003ECE07039A3E0700214
:10301B00A3E070319003EFE0702BA3E07027A3E0E7
:10302B007002A3E0701F9003F3E07019A3E070151A
:10303B009003F6E0700FA3E0700BA3E07007A3E022
:10304B00700302320CE49003E6F0A3F0A3F0A3F0BC
:10305B00A3F0A3F09003EDF0A3F0A3F0A3F0A3F083
:10306B00A3F0A3F0A3F09003F6F0A3F0126E8AD2B4
:10307B000002320CD39003E7E094E79003E6E09470
:10308B00034006E4F0A3F0D200D39003E9E094E709
:10309B009003E8E094034006E4F0A3F0D200900321
:1030AB00ECE0D394014005126E8AD2009003EDE060
:1030BB007002A3E0600FD39003EEE094E79003ED72
:1030CB00E09403400F9003ED7403F0A374E7F0E476
:1030DB00A3F0D2009003EFE0D394014004E4F0D2CC
:1030EB00009003F0E0D394014004E4F0D20090038D
:1030FB00F1E07002A3E0600FD39003F2E094E7904D
:10310B0003F1E09403400A9003F1E4F0A304F0D23E
:10311B00009003F3E0D394014004E4F0D200900359
:10312B00F4E0D394014004E4F0D2009003F6E0D332
:10313B00940140057401F0D2009003F7E06005D3D1
:10314B00946340089003F77403F0D2009003ECE013
:10315B00600E1266354009E49003EAF0A3F080108C
:10316B009003ECE0700F9003F8E07004A3E06005AF
:10317B00126E8AD2009003F0E0602E126E8A9003DA
:10318B00EFE07044126EB8C39003EBE09F9003EA3C
:10319B00E09E4034126EB8EF24FFFFEE34FF900335
:1031AB00EAF0A3EFF0D200801F9003E8E07002A3D7
:1031BB00E070159003ECE0700A9003EAE07002A354
:1031CB00E06005126E83D2009003F0E07033900341
:1031DB00E8E07002A3E060299003ECE07023126E2C
:1031EB00A8C39003EBE09F9003EAE09E4013126E9E
:1031FB00A8EF24FFFFEE34FF9003EAF0A3EFF0D229
:07320B000030000312443FF4
:013212002299
:10689100E4900537F07A04792912570D7A047929A1
:1068A10090033B1267561260B27A0279EC12570DCF
:1068B1007A0279EC90033C1267567B017A0279ECFB
:0368C1000260B8BA
:05595E0090053CEFF094
:10596300A312243C000000009005417403F090054D
:105973003DE0F8A3E0F9A3E0FAA3E0FB90053CE0E7
:10598300C454F0246DF582E43402F583C083C082ED
:10599300900541E0D082D08375F00212246DE0FEC1
:1059A300A3E0FFE4FCFDEB2FFFEA3EFEED39FDEC47
:1059B30038FC90053D122430900541E004F0E0B43A
:1059C30008AC90053DE0FCA3E0FDA3E0FEA3E0FFEF
:1059D300E47B05FAF9F81222EB90053D122430908E
:0959E300053DA3A3E0FEA3E0FFD3
:0159EC002298
:1055420090053712243C00000000E5086006E4F5EF
:1055520008126F9F7B017A0079037F32125AFE5044
:10556200787F0112595E9002C8EEF0A3EFF012624A
:105572002D9002AEEEF0A3EFF0E4FF12595E90021E
:10558200C6EEF0A3EFF0C3EE94045007E490053B9F
:10559200F08014C39002C6E0940C90053B50057451
:1055A20002F080037401F090053BE0FF90023FF0AF
:1055B2006F6015900007E004F0D39402400F90054D
:1055C2003BE090023FF08000E4900007F09002334D
:0955D200E0C394055003E004F06D
:0155DB0022AD
:0D6F1100900233E0C394054002D322C32256
:10678B007B017A02796D90053C7420F0E4FD126D6B
:10679B0007D200126F2A124B9DD2AE53E1FDE4F5E6
:1067AB000A120003126F9F126F114008125542120A
:0567BB006E5B80F3227B
:105F1B0090052EEFF0C2037F031265309002CFE0A5
:105F2B006003E4A3F0C283E49002CFF0900320F06F
:105F3B00C2979003FAF0C2B0A3F0900253F0900214
:105F4B00D0F0900306F09002E2F0900428F090035A
:105F5B0039E0FEA3E0FF7C007D0A1221AE900235F2
:105F6B00EEF0A3EFF0E490024AF090024FF0C2047F
:095F7B007B017A0279B1026EA2E9
:101A21007A02798E125AFA400302200D90024FE099
:101A31006003021E219003FC74FF1223FDE4FBFAF4
:101A4100F9F8C312237D6003021C77900452E0640D
:101A510001F0E49002D0F0900306F09002E2F090E1
:101A610002D1F00B7A0279B1126EA290023FE064CA
:101A710001705C90033EE07056900347E060509027
:101A81000452E06401704890052EE075F008A4242A
:101A910022F582E43403F583C083C082900452E0CE
:101AA100D082D08375F00412246DE0FCA3E0FDA385
:101AB100E0FEA3E0FF9003FC1224309003FCE0FC65
:101AC100A3E0FDA3E0FEA3E0FFE47B0AFA804F90D0
:101AD100023FE0601064016003021BC190033EE01D
:101AE1007003021BC190033DE07003021BC1A3E020
:101AF100705F900452E064017032900343E0FEA3F2
:101B0100E0FFE4FCFD9003FC1224309003FCE0FCB8
:101B1100A3E0FDA3E0FEA3E0FFE47B587A02F9F81D
:101B21001222609003FC122430021D8790052EE0E2
:101B310075F008A42422F582E43403F583C083C040
:101B410082900452E0D082D08375F00412246D801B
:101B51003D900452E064017032900343E0FEA3E043
:101B6100FFE4FCFD9003FC1224309003FCE0FCA395
:101B7100E0FDA3E0FEA3E0FFE47B587A02F9F8124E
:101B810022609003FC122430021D7C900322E0FCB1
:101B9100A3E0FDA3E0FEA3E0FF9003FC122430903C
:101BA10003FCE0FCA3E0FDA3E0FEA3E0FFE47B581F
:101BB1007A02F9F81222609003FC122430021DD936
:101BC10090033EE0705890052EE075F008A42422A1
:101BD100F582E43403F583C083C082900452E0D0DF
:101BE10082D08375F00412246DE0FCA3E0FDA3E034
:101BF100FEA3E0FF9003FC1224309003FCE0FCA361
:101C0100E0FDA3E0FEA3E0FFE47B587A02F9F812BD
:101C110022609003FC122430124750021DFE9004F2
:101C210052E025E025E02422F582E43403F583E047
:101C3100FCA3E0FDA3E0FEA3E0FF9003FC1224302F
:101C41009003FCE0FCA3E0FDA3E0FEA3E0FFE47B46
:101C5100587A02F9F81222609003FC1224307B01B9
:101C61007A0279EC900322A3A3E0FEA3E0FDAC0687
:101C7100124770021DEA90023FE06401703C90033C
:101C81003EE07036900347E06030900452E0B401CA
:101C910029E47B0AFAF9F89003FCE0FCA3E0FDA338
:101CA100E0FEA3E0FF1222EB9005371224307B0106
:101CB1007A047929900537021DF3E47B587A02F9F9
:101CC100F89003FCE0FCA3E0FDA3E0FEA3E0FF121B
:101CD10022EB900537122430E47B0AFAF9F89003DD
:101CE100FCE0FCA3E0FDA3E0FEA3E0FF1222EBE495
:101CF1007B3CFAF9F81222EBAC00AD01AE02AF0366
:101D0100EC4D4E4F601F900537E0FCA3E0FDA3E0D2
:101D1100FEA3E02401FFE43EFEE43DFDE43CFC9033
:101D21000537122430900452E06401707B90033D2A
:101D3100E0602D90023FE0FF6402600DEF600A64F5
:101D410001701D90033EE060177B017A0279EC90EF
:101D51000322A3A3E0FEA3E0FDAC06124770807846
:101D61007B017A047929900537A3A3E0FEA3E0FD66
:101D7100AC0612477090033EE0600B7B017A02795A
:101D8100EC900322806C90052EE075F008A42422CB
:101D9100F582E43403F583A3A3E0FEA3E0FDAC06E2
:101DA1007B017A0279EC80757B017A0279EC9005EE
:101DB10037A3A3E0FEA3E0FDAC0612477090033DFC
:101DC100E0602090023FE0FF6402600CEF6009B424
:101DD100011190033EE0600B7B017A047929E4FD57
:101DE100FC803A90033EE060147B017A04792990EB
:101DF1000326A3A3E0FEA3E0FDAC06802090052E00
:101E0100E075F008A42426F582E43403F583A3A346
:101E1100E0FEA3E0FDAC067B017A0479291247704C
:101E210090023FE0FF601064016003021F7C900399
:101E31003EE07003021F7C900334E0FF7003022038
:101E41000D900452E0FEB40103EF7018EE6003023E
:101E51001EFA90024FE07003021EFA900334E07004
:101E610003021EFA90023A74FF1223FDE4FBFAF911
:101E7100F8C312237D600302200D90028DE06401FE
:101E8100F0900347E0603990028DE0B4013225E023
:101E910025E0242AF582E43403F583E0FCA3E0FD88
:101EA100A3E0FEA3E0FF90023A12243090023AE050
:101EB100FCA3E0FDA3E0FEA3E0FFE47B0A02200314
:101EC10090028DE025E025E0242AF582E43403F533
:101ED10083E0FCA3E0FDA3E0FEA3E0FF90023A1241
:101EE100243090023AE0FCA3E0FDA3E0FEA3E0FF72
:101EF100E47B587A02F9022003900337E090028DC7
:101F0100F0900347E0603B90028DE0B4013425E09E
:101F110025E0242AF582E43403F583E0FCA3E0FD07
:101F2100A3E0FEA3E0FF90023A12243090023AE0CF
:101F3100FCA3E0FDA3E0FEA3E0FFE47B0AFAF902C3
:101F4100200390028DE025E025E0242AF582E43487
:101F510003F583E0FCA3E0FDA3E0FEA3E0FF900214
:101F61003A12243090023AE0FCA3E0FDA3E0FEA384
:101F7100E0FFE47B587A02F9022003900334E07019
:101F81000302200D900337E090028DF0900347E0AB
:101F9100603A90028DE0B4013325E025E0242AF572
:101FA10082E43403F583E0FCA3E0FDA3E0FEA3E0BB
:101FB100FF90023A12243090023AE0FCA3E0FDA324
:101FC100E0FEA3E0FFE47B0AFAF9803690028DE09F
:101FD10025E025E0242AF582E43403F583E0FCA31F
:101FE100E0FDA3E0FEA3E0FF90023A12243090024C
:101FF1003AE0FCA3E0FDA3E0FEA3E0FFE47B587A16
:1020010002F9F812226090023A12243090024FE055
:102011006075900009E06002E4F07B017A0279ECDE
:10202100900322A3A3E0FEA3E0FDAC0612477012C9
:102031004EB99002D5E0FCA3E0FDA3E0FEA3E0FFD2
:10204100EC4D4E4F6016900008E070109002D512D2
:10205100243C000000009000087401F07A0279DA53
:10206100125AFA40030221119002D5E0FCA3E0FDCF
:10207100A3E0FEA3E02401FFE43EFEE43DFDE43CD9
:10208100FC9002D5022430900009E0600302211186
:10209100FFFEFDFC9002D5E0F8A3E0F9A3E0FAA36E
:1020A100E0FBC312237D605A900353E004F0E0D3B8
:1020B100941D4002E4F0900353E0FBEBD394004005
:1020C1002DEB25E025E02450F582E43403F583E08F
:1020D100FCA3E0FDA3E0FEA3E0FFEB25E025E02467
:1020E10054F582E43403F5831224301B80CD900231
:1020F100D5E0FCA3E0FDA3E0FEA3E0FF90035412B2
:10210100243012443F9000097401F0E4900008F07B
:0121110022AB
:10431D00900230E070030244377B017A0279E31298
:10432D005AFC400302443E20810E9002EBE004F063
:10433D0070069002EAE004F09002C3E004F070060B
:10434D009002C2E004F0C39002C3E094FA9002C25E
:10435D00E09400500302443E9002EBE094C89002BA
:10436D00EAE09400401190024F7401F090000AE4CD
:10437D00F0A304F002441D900452E06401704E90CD
:10438D000338E0700C9003FC12243C000000018007
:10439D007490033FE0600D24FE6021146008240238
:1043AD007063800280169002D9E075F002A4240A91
:1043BD00FFE435F0FE3395E0FDFC80099002D9E075
:1043CD00FFE4FCFDFE9003FC1224308038900322A4
:1043DD00E0FCA3E0FDA3E0FEA3E0FF9003FC1224AC
:1043ED00309003FCE0FCA3E0FDA3E0FEA3E0FFE4BE
:1043FD007B587A02F9F81222609003FC1224309057
:10440D0004047401F0E490024FF090000AF0A3F060
:10441D00E4900230F09002EAF0A3F09002C2F0A313
:10442D00F07B017A0279E3026EA2E490000AF0A318
:02443D00F0226B
:10396D0090052EE075F008A42426F582E43403F5C5
:10397D0083A3A3E0FEA3E0FDAC067B017A047929C5
:10398D001247701247507B017A02798E126EA29007
:10399D000345E0FEA3E0FF7C007D0A1221AEE4FDAD
:1039AD0090012312243090023FE060106401600307
:1039BD00023AC390033EE07003023AC390033DE028
:1039CD006029900336E0FF900452F0BF010D900383
:1039DD0043E0FEA3E0FFE4FCFD8030900322E0FC19
:1039ED00A3E0FDA3E0FEA3E0FF8020900336E0906E
:1039FD000452F025E025E02422F582E43403F5831A
:103A0D00E0FCA3E0FDA3E0FEA3E0FF9003FC122485
:103A1D00309003FCE0FCA3E0FDA3E0FEA3E0FFE497
:103A2D007B587A02F9F81222609003FC1224309030
:103A3D000337E090028DF0900347E0603990028DDE
:103A4D00E0B4013225E025E0242AF582E43403F5C3
:103A5D0083E0FCA3E0FDA3E0FEA3E0FF90023A1299
:103A6D00243090023AE0FCA3E0FDA3E0FEA3E0FFCA
:103A7D00E47B0AFA803590028DE025E025E0242ACA
:103A8D00F582E43403F583E0FCA3E0FDA3E0FEA39F
:103A9D00E0FF90023A12243090023AE0FCA3E0FDE0
:103AAD00A3E0FEA3E0FFE47B587A02F9F81222604E
:103ABD0090023A023B8B90023FE064016003023BAF
:103ACD008E90033EE06003023B8E900337E090043E
:103ADD0052F0900347E06057900452E0B4015090CB
:103AED00052EE075F008A42422F582E43403F58355
:103AFD00C083C082900452E0D082D08375F004124E
:103B0D00246DE0FCA3E0FDA3E0FEA3E0FF9003FC29
:103B1D001224309003FCE0FCA3E0FDA3E0FEA3E043
:103B2D00FFE47B0AFAF9F81222609003FC804F90B3
:103B3D00052EE075F008A42422F582E43403F58304
:103B4D00C083C082900452E0D082D08375F00412FD
:103B5D00246DE0FCA3E0FDA3E0FEA3E0FF9003FCD9
:103B6D001224309003FCE0FCA3E0FDA3E0FEA3E0F3
:103B7D00FFE47B587A02F9F81222609003FC1224BC
:073B8D0030E49002D1F022A8
:104DF600E49002D9F090033DE0600D900343E0FE9D
:104E0600A3E0FFE4FCFD800E900326E0FCA3E0FD9A
:104E1600A3E0FEA3E0FF900405122430900405E011
:104E2600FCA3E0FDA3E0FEA3E0FFE47B587A02F9D1
:104E3600F8122260900405122430900338E0703591
:104E4600900405E0FCA3E0FDA3E0FEA3E0FFC0079D
:104E5600900332E0FBD007C3EF9BFFEE9400FEED1C
:104E66009400FDEC9400FC9004051224309003E5B8
:104E7600E09002D9F0900338E0B40110900333E0DB
:104E86009002D9F0C3941950037419F09002D9E036
:104E9600FB900405E0FCA3E0FDA3E0FEA3E0C39BBA
:104EA600FFEE9400FEED9400FDEC9400FC9002CA27
:034EB600022430A3
:106C97003000129002D0E07013D2979003FA04F0FC
:0D6CA7009002D0F022C297E49003FAF02290
:106BDF00300015900306E06002800DD2979003FA03
:106BEF007401F09002E2F022C297E49003FAF022CF
:106E4600D2B09003FB7401F090024FE0600690040C
:056E5600287401F02288
:086F6B00C2B0E49003FBF02228
:096F5200308105E4900428F022CE
:10501700E4900253F0900339E0FEA3E0FF7C007DAB
:0C5027000A1221AE900235EEF0A3EFF06B
:105033007F02126F0440101F126F04400AE49002B3
:10504300A2F09002AC04F07B017A00790C90053E4B
:1050530012243C000003E79005427402F0A314F00D
:10506300C2009002ACE0900544F07F007E007D001A
:105073007C0012374650469002A2E004F0B41408B4
:105083009002AC740AF0800D9002A2E0B42806905E
:1050930002AC7419F01254A79004277401F0FB7A40
:1050A30004794E126EA2900339E0FEA3E0FF7C0068
:0E50B3007D0A1221AE900235EEF0A3EFF0223E
:0668C4007BFF7A4B794DC9
:1068CA00900537EBF0A3EAF0A3E9F09004277401EE
:1068DA00F0FB7A04794E126EA21254A7900537E0A3
:0C68EA00FBA3E0FAA3E0F97F0102638643
:10001E007B017A04794E7FF47E01125B00502A90A8
:10002E000427E06401F0600D90000CA3A3E0FEA392
:10003E00E0FF0254B17B017A0279ECE4900540F0C6
:0A004E00A3F0A3F07D03125FEB2284
:106DEE007BFF7A4B79427F011263861260B2126E7C
:076DFE005B1269F6026E5BF7
:106D8E007B017A04792990053E7440F0A3F01253EA
:0A6D9E0072126E5B1269F6026E5B62
:106AD5001254A77BFF7A4B79467F011263861260B9
:106AE500B27B017A0279EC1260B8126E5B1269F61C
:036AF500026E5BD3
:106AF8001254A77BFF7A4B794A7F01126386126092
:106B0800B27B017A0279EC1260B8126E5B1269F6F8
:036B1800026E5BAF
:0B6F350090024B12243C0000000022E0
:1041D7009003F5E0700790052DF00242A8200342F6
:1041E700D20390000C12243C00000000E49002343B
:1041F700F09002A2F09002AC04F01268C4126B1B9C
:10420700D2000F126B1FE4900253F0900339E0FEC7
:10421700A3E0FF7C007D0A1221AE900235EEF0A3E9
:10422700EFF012501712001EE4FF126A4240030219
:10423700431C900339E0FEA3E0FF7C007D0A1221B6
:10424700AE900235EEF0A3EFF09003E6E0FEA3E0B8
:10425700FFE4FD90000CE0F8A3E0F9A3E0FAA3E087
:10426700FBC312237D7042900234F0126AD5900589
:104277002DE0601CE4F09003EAF0A3F09003F0F067
:10428700126E8A126F35E4900229F012443F8015AE
:10429700900229E0600A9003F0E070047F068060D6
:1042A700E4900229F07F028057900234E004F01274
:1042B7006AF89003F7E0FF900234E0C39F40449010
:1042C7000229E0601CE4900234F0900229F090008B
:1042D7000C12243C000000007F031265307F02802F
:1042E7001F9003F0E0600EE4900234F09003EFF0CB
:1042F70012443F800E9003EF7401F012443F7F0891
:10430700025F1B90000C12243C000000001268C4DE
:064317007F031265302255
:104F69002003609003F5E0600C900229E060069050
:104F790003F0E0600AE4900229F07F02025013D2A4
:104F89000390000C12243C00000000E49002A2F0FF
:104F99009002AC04F07BFF7A4B79511268CA126B0C
:104FA9001BD2000F126B1FE4900253F0900339E0FB
:104FB900FEA3E0FF7C007D0A1221AE900235EEF0DF
:104FC900A3EFF012501712001EE4FF126A42503D7F
:104FD90090000CA3A3E0FFA3E09003E6CFF0A3EFBA
:104FE900F0A3E0FEA3E0FFE4FCFD90000C122430E6
:104FF900E4900229F012443F126DEE9003F6E0604E
:0E500900047F07800590023FE0FF125F1B222C
:10583A009003F5E06004A3E0700AE4900229F07F87
:10584A00020258CA20034BD2039003E8E0FEA3E009
:10585A00FFE4FCFD90000C122430E49002A2F090C8
:10586A0002AC04F07BFF7A4B79551268CA126B1BA3
:10587A00D2000F126B1FE4900253F0900339E0FE3E
:10588A00A3E0FF7C007D0A1221AE900235EEF0A360
:10589A00EFF0125017E4FF126A42502790000CA34F
:1058AA00A3E0FFA3E09003E8CFF0A3EFF0E4A3F0B6
:1058BA00A3F0126E8A126F3512443F90023FE0FF46
:0458CA00125F1B222C
:1049EB009003F5E0700B90052DF0900229F0024A30
:1049FB00A4200344D20390000C12243C00000000BE
:104A0B00E49002A2F09002AC04F07BFF7A4B795950
:104A1B001268CA126B1BD2000F126B1FE490025369
:104A2B00F0900339E0FEA3E0FF7C007D0A1221AE7B
:104A3B00900235EEF0A3EFF012501712001EE4FFB8
:104A4B00126A425074900339E0FEA3E0FF7C007DB4
:104A5B000A1221AE900235EEF0A3EFF09003EDE0D9
:104A6B00FEA3E0FFE4FD90000CE0F8A3E0F9A3E067
:104A7B00FAA3E0FBC312237D7024900234F090055F
:104A8B002DF0900229F09003EFF0A304F0126E8347
:104A9B00126F3512443F126AD57F02025F1B126AF6
:104AAB00F890000C12243C000000007BFF7A4B793D
:0A4ABB00591268CA7F031265302209
:1067C000126C1E126B1BD2000F126B1F7BFF7A4BD9
:1067D000795D1F1263867BFF7A4B793E7F011263DE
:1067E000867B017A0279EC1260B81260B2126E5B9D
:0567F0001265AB80F80A
:086F7300E47FA07E8CFDFC22EE
:1057A4009003F5E0601A9003EFE07014A3E0701327
:1057B4009003E8E07002A3E060069003ECE060036D
:1057C400026F35126F73C004C005C006C007900293
:1057D4004B1223FBA804A905AA06AB07D007D006E1
:1057E400D005D004C312237D404B126F359003EBD8
:1057F400E004F070069003EAE004F09003F0E06047
:105804001E126E8A126EB8C39003EBE09F9003EAF7
:10581400E09E401EE4F0A3F09003EF04F080131226
:105824006EA8C39003EBE09F9003EAE09E4003124E
:065834006AB212443F229B
:105E3E0020032BD203124EB990054074FFF0A374C9
:105E4E004BF0A3743EF07B017A0279EC124ECD7BBF
:105E5E00017A02798E126EA29002477401F07B01D4
:105E6E007A02798E7FE87E03125B00501C90024707
:105E7E00E06401F024FF9200E4FF126B1F900247D2
:105E8E00E024FF92000F126B1F90023FE07003FFA1
:0F5E9E00800990023FE0B401057F01125F1B22D3
:10007E00200311D20312396D124DF6126B1BD200F2
:10008E000F126B1F121A2112431D900452E07003BF
:10009E0002088314600302105F90033DE0700302B8
:1000AE00029420814390022AE0703D900230E0706D
:1000BE003720040BD2047B017A0279B1126EA29022
:1000CE000240E0701F7B017A0279B17F207E4EFDE7
:1000DE00FC125B04400302019690024F7401F090F3
:1000EE00023780477B01804530040BC2047B017AC6
:1000FE000279B1126EA2900334E0FF60086037906F
:10010E00028DE0703190024FE0602B900240E07063
:10011E002590022AE0701F90000AE07002A3E070A2
:10012E0015900230E0700F90022A04F0FB7A0279EB
:10013E00B1126EA28052900334E0604C90028DE0BA
:10014E00640170447F02FEFDFC90023AE0F8A3E0E9
:10015E00F9A3E0FAA3E0FBD312237D502B90024FBC
:10016E00E06025900230E0701F900240E070199020
:10017E00023004F0E490022AF07B017A0279B11287
:10018E006EA29002377401F090022AE07003020210
:10019E00B4900230E060030202B4900334E0707059
:1001AE007B017A0279B17F987E3AFDFC125B0440A6
:1001BE00030202B4E490024FF090023704F0900371
:1001CE0038E0700D9003FC12243C00000001020286
:1001DE008E90033FE0601024FE602414600B240216
:1001EE00600302028E800280169002D9E075F00242
:1001FE00A4240AFFE435F0FE3395E0FDFC8009905F
:10020E0002D9E0FFE4FCFDFE9003FC122430807066
:10021E0090028DE060030202AB7B017A0279B17F1E
:10022E00987E3AFDFC125B04507CE490024FF090F5
:10023E00023704F0900338E0700C9003FC12243C5B
:10024E0000000001803A90033FE0600D24FE602123
:10025E0014600824027029800280169002D9E0757D
:10026E00F002A4240AFFE435F0FE3395E0FDFC8095
:10027E00099002D9E0FFE4FCFDFE9003FC1224304D
:10028E00E490022A8016C204E490024FF090022AF3
:10029E00F0900230F0900240F0900237F07B017A3D
:1002AE000279B1126EA2900338E014605C04600310
:1002BE00020719D2839002CF7401F0900320F090C0
:1002CE000405E0FCA3E0FDA3E0FEA3E0FF9003FC29
:1002DE00E0F8A3E0F9A3E0FAA3E0FBC312237D50FC
:1002EE001F9002CAE0FCA3E0FDA3E0FEA3E0FF9096
:1002FE0003FCE0F8A3A3A3E012237D4003D3800107
:10030E00C39200126C9702071990033FE01470031A
:10031E000203D01470030204B11470030205C12449
:10032E000360030207199003FCE0FCA3E0FDA3E0C9
:10033E00FEA3E0FFE4FBFAF9F8C312237D502590EB
:10034E0002D9E0FFE4FCFDFE9003FCE0F8A3E0F927
:10035E00A3E0FAA3E0FB12237D5009D2839002CFD3
:10036E007401800F9002CFE06003E4A3F0C283E437
:10037E009002CFF0900320F0900240F0900405E040
:10038E00FCA3E0FDA3E0FEA3E0FF9003FCE0F8A3D6
:10039E00E0F9A3E0FAA3E0FBD312237D50209002F4
:1003AE00CAE0FCA3E0FDA3E0FEA3E0FF9003FCE0A7
:1003BE00F8A3A3A3E012237D4004D3020714C302C3
:1003CE0007149003FCE0FCA3E0FDA3E0FEA3E0FF16
:1003DE00E4FBFAF9F8C312237D501C9002D9E0FF1A
:1003EE00E4FCFDFE9003FCE0F8A3E0F9A3E0FAA321
:1003FE00E0FB12237D40469002D9E0240AFFE4334D
:10040E00FE3395E0FDFC9003FCE0F8A3E0F9A3E0D9
:10041E00FAA3E0FBD312237D402C9002D9E075F0B5
:10042E0002A4240AFFE435F0FE3395E0FDFC9003B0
:10043E00FCE0F8A3A3A3E0D312237D5009D283904E
:10044E0002CF7401800F9002CFE06003E4A3F0C2EC
:10045E0083E49002CFF0900320F0900240F09004DD
:10046E0005E0FCA3E0FDA3E0FEA3E0FF9003FCE0AB
:10047E00F8A3E0F9A3E0FAA3E0FBD312237D501F0B
:10048E009002CAE0FCA3E0FDA3E0FEA3E0FF900310
:10049E00FCE0F8A3A3A3E012237D4003D38001C3A5
:1004AE000207149003FCE0FCA3E0FDA3E0FEA3E032
:1004BE00FFE4FBFAF9F8C312237D50259002D9E030
:1004CE00FFE4FCFDFE9003FCE0F8A3E0F9A3E0FAE4
:1004DE00A3E0FB12237D5009D2839002CF740180DA
:1004EE000F9002CFE06003E4A3F0C283E49002CF4A
:1004FE00F0900320F0900240F0900405E0FCA3E0A1
:10050E00FDA3E0FEA3E0FF9003FCE0F8A3E0F9A357
:10051E00E0FAA3E0FBD312237D501C9002CAE0FC4C
:10052E00A3E0FDA3E0FEA3E0FF9003FCE0F8A3A38D
:10053E00A3E012237D50759002CAE0FCA3E0FDA358
:10054E00E0FEA3E024F6FFEE34FFFEED34FFFDECFB
:10055E0034FFFC9003FCE0F8A3E0F9A3E0FAA3E07B
:10056E00FBD312237D50489002CAE0FCA3E0FDA30A
:10057E00E0FEA3E024F6FFEE34FFFEED34FFFDECCB
:10058E0034FFFCC0079002D9E0FBD007C3EF9BFFFE
:10059E00EE9400FEED9400FDEC9400FC9003FCE064
:1005AE00F8A3A3A3E0FBD312237D4003D38001C3A2
:1005BE000207149003FCE0FCA3E0FDA3E0FEA3E021
:1005CE00FFE4FBFAF9F8C312237D501C9002D9E028
:1005DE00FFE4FCFDFE9003FCE0F8A3E0F9A3E0FAD3
:1005EE00A3E0FB12237D40469002D9E0240AFFE4EB
:1005FE0033FE3395E0FDFC9003FCE0F8A3E0F9A395
:10060E00E0FAA3E0FBD312237D402C9002D9E075D3
:10061E00F002A4240AFFE435F0FE3395E0FDFC90D1
:10062E0003FCE0F8A3A3A3E0D312237D5009D283E9
:10063E009002CF7401800F9002CFE06003E4A3F02C
:10064E00C283E49002CFF0900320F0900240F0902D
:10065E000405E0FCA3E0FDA3E0FEA3E0FF9003FC95
:10066E00E0F8A3E0F9A3E0FAA3E0FBD312237D5058
:10067E001C9002CAE0FCA3E0FDA3E0FEA3E0FF9005
:10068E0003FCE0F8A3A3A3E012237D50759002CAE9
:10069E00E0FCA3E0FDA3E0FEA3E024F6FFEE34FFB2
:1006AE00FEED34FFFDEC34FFFC9003FCE0F8A3E01C
:1006BE00F9A3E0FAA3E0FBD312237D50489002CABF
:1006CE00E0FCA3E0FDA3E0FEA3E024F6FFEE34FF82
:1006DE00FEED34FFFDEC34FFFCC0079002D9E0FBC9
:1006EE00D007C3EF9BFFEE9400FEED9400FDEC945B
:1006FE0000FC9003FCE0F8A3A3A3E0FBD312237D40
:10070E004003D38001C39200126BDF9003FCE0FC28
:10071E00A3E0FDA3E0FEA3E0FFE4FBFAF9F8C312A9
:10072E00237D5035E47F96FEFDFC9003FCE0F8A39C
:10073E00E0F9A3E0FAA3E0FB12237D501C900335F1
:10074E00E0601690024FE07010900237E0700AD20F
:10075E00B09003FB04F002105F900334E0700302CC
:10076E00105F90028DE07003020880146003021087
:10077E005F900337E06401600302087D90024FE052
:10078E00600302087D900345E07002A3E07003024F
:10079E00087D7B017A007918125AFC50479002D1DD
:1007AE00E0704190012374FF1223FDE4FBFAF9F887
:1007BE00C312237D600302105F126E460B7A00791E
:1007CE0018126EA2900345E0FEA3E0FF7C007D0AA6
:1007DE001221AEE4FD9001231224309002D1740157
:1007EE00F002105F9002D1E06003021027900347E1
:1007FE00E0603990028DE0B4013225E025E0242A34
:10080E00F582E43403F583E0FCA3E0FDA3E0FEA350
:10081E00E0FF90023A12243090023AE0FCA3E0FD91
:10082E00A3E0FEA3E0FFE47B0AFA803590028DE0A0
:10083E0025E025E0242AF582E43403F583E0FCA3C9
:10084E00E0FDA3E0FEA3E0FF90023A1224309002F6
:10085E003AE0FCA3E0FDA3E0FEA3E0FFE47B587AC0
:10086E0002F9F812226090023A12243002105F024E
:10087E00102702102CC2B0E49003FBF0900237F068
:10088E0090033DE07003021031208175900010E05E
:10089E00706F900230E0706920040BD2047B017AF5
:1008AE000279B1126EA290024FE060030209937BAF
:1008BE00017A0279B17F207E4EFDFC125B04502A34
:1008CE0090024F7401F0E4900010F0900338E07045
:1008DE0008D2839002CF0480209002CFE06003E420
:1008EE00A3F0C283E49002CF800F9002CFE06003AA
:1008FE00E4A3F0C283E49002CFF0900320F002094B
:10090E009330040BC2047B017A0279B1126EA2906D
:10091E000334E0FF6008602A90028DE0702490029C
:10092E004FE0601E900010E0701890000AE0700218
:10093E00A3E0700E900230E0700890001004F0FBFF
:10094E00803C900334E0603D90028DE06401703590
:10095E007F02FEFDFC90023AE0F8A3E0F9A3E0FA74
:10096E00A3E0FBD312237D501C90024FE060169043
:10097E000230E0701004F0E4900010F07B017A0277
:10098E0079B1126EA2900010E06056900230E070C5
:10099E00507B017A0279B17F987E3AFDFC125B049E
:1009AE00505FE490024FF0900322E0FCA3E0FDA321
:1009BE00E0FEA3E0FF9003FC1224309003FCE0FC69
:1009CE00A3E0FDA3E0FEA3E0FFE47B587A02F9F872
:1009DE001222609003FC1224309004047401F08003
:1009EE002090024FE0701A9002CFE06003E4A3F073
:1009FE00C283E49002CFF0900320F0C2979003FAE6
:100A0E00F0900404E07003021012E47F587E02FDA1
:100A1E00FC900322E0F8A3E0F9A3E0FAA3E0FB12B6
:100A2E002260C0079002D9E0FBD007C3EF9BFFEE18
:100A3E009400FEED9400FDEC9400FC90030712244C
:100A4E0030E47F587E02FDFC900322E0F8A3E0F92B
:100A5E00A3E0FAA3E0FB12226090031B1224309055
:100A6E000338E014601D0460030210129002CFE000
:100A7E006003E4A3F0C283E49002CFF0900320F071
:100A8E0002100190033FE0147003020B79147003FF
:100A9E00020D44147003020E3C2403600302101274
:100AAE009003FCE0FCA3E0FDA3E0FEA3E0FF9003B7
:100ABE0007E0F8A3E0F9A3E0FAA3E0FBC312237D5D
:100ACE00502B90031BE0FCA3E0FDA3E0FEA3E0FF90
:100ADE009003FCE0F8A3E0F9A3E0FAA3E0FBC31255
:100AEE00237D5009D2839002CF7401800F9002CFE4
:100AFE00E06003E4A3F0C283E49002CFF090032001
:100B0E00F0E47F587E02FDFC900322E0F8A3E0F9AA
:100B1E00A3E0FAA3E0FB122260C0079002D9E0FB2B
:100B2E00D007C3EF9BFFEE9400FEED9400FDEC9416
:100B3E0000FC9003FCE0F8A3E0F9A3E0FAA3E0FBCD
:100B4E00D312237D4003021012E47F587E02FDFC77
:100B5E00900322E0F8A3E0F9A3E0FAA3E0FB12224F
:100B6E00609003FC122430E4021001E47F587E02F0
:100B7E00FDFC900322E0F8A3E0F9A3E0FAA3E0FB6A
:100B8E00122260C0079002D9E0FBD007C3EF9BFF93
:100B9E00EE9400FEED9400FDEC9400FC9003FCE05E
:100BAE00F8A3E0F9A3E0FAA3E0FBD312237D402FD4
:100BBE00E47F587E02FDFC900322E0F8A3E0F9A347
:100BCE00E0FAA3E0FB1222609003FCE0F8A3E0F948
:100BDE00A3E0FAA3E0FBC312237D5003020CA2E4B0
:100BEE007F587E02FDFC900322E0F8A3E0F9A3E01B
:100BFE00FAA3E0FB122260C006C0079002D9E0758E
:100C0E00F002A4AEF0FBAA06D007D006C3EF9BFFFE
:100C1E00EE9AFEED9400FDEC9400FCEF24F6FFEE50
:100C2E0034FFFEED34FFFDEC34FFFC9003FCE0F8E6
:100C3E00A3E0F9A3E0FAA3E0FBD312237D405EE428
:100C4E007F587E02FDFC900322E0F8A3E0F9A3E0BA
:100C5E00FAA3E0FB122260C0079002D9E0FBD00796
:100C6E00C3EF9BFFEE9400FEED9400FDEC9400FCB0
:100C7E00EF24F6FFEE34FFFEED34FFFDEC34FFFC07
:100C8E009003FCE0F8A3E0F9A3E0FAA3E0FBC312A3
:100C9E00237D5009D2839002CF7401800F9002CF32
:100CAE00E06003E4A3F0C283E49002CFF09003204F
:100CBE00F0E47F587E02FDFC900322E0F8A3E0F9F9
:100CCE00A3E0FAA3E0FB122260C006C0079002D98F
:100CDE00E075F002A4AEF0FBAA06D007D006C3EF73
:100CEE009BFFEE9AFEED9400FDEC9400FCEF24F6D3
:100CFE00FFEE34FFFEED34FFFDEC34FFFC9003FC01
:100D0E00E0F8A3E0F9A3E0FAA3E0FBD312237D40C1
:100D1E0003021012E47F587E02FDFC900322E0F8DD
:100D2E00A3E0F9A3E0FAA3E0FB1222609003FC1209
:100D3E002430E4021001E47F587E02FDFC90032271
:100D4E00E0F8A3E0F9A3E0FAA3E0FB122260C007EB
:100D5E009002D9E0FBD007C3EF9BFFEE9400FEEDAF
:100D6E009400FDEC9400FC9003FCE0F8A3E0F9A3E2
:100D7E00E0FAA3E0FBD312237D4035E47F587E02D8
:100D8E00FDFC900322E0F8A3E0F9A3E0FAA3E0FB58
:100D9E001222609003FCE0F8A3E0F9A3E0FAA3E0CE
:100DAE00FBC312237D5009D2839002CF7401800FB2
:100DBE009002CFE06003E4A3F0C283E49002CFF090
:100DCE00900320F0E47F587E02FDFC900322E0F8B1
:100DDE00A3E0F9A3E0FAA3E0FB122260C0079002A1
:100DEE00D9E0FBD007C3EF9BFFEE9400FEED94001D
:100DFE00FDEC9400FC9003FCE0F8A3E0F9A3E0FA0C
:100E0E00A3E0FBD312237D4003021012E47F587E31
:100E1E0002FDFC900322E0F8A3E0F9A3E0FAA3E0C0
:100E2E00FB1222609003FC122430E4021001E47FD6
:100E3E00587E02FDFC900322E0F8A3E0F9A3E0FA4D
:100E4E00A3E0FB122260C0079002D9E0FBD007C3DB
:100E5E00EF9BFFEE9400FEED9400FDEC9400FC90F1
:100E6E0003FCE0F8A3E0F9A3E0FAA3E0FBD312231E
:100E7E007D402FE47F587E02FDFC900322E0F8A314
:100E8E00E0F9A3E0FAA3E0FB1222609003FCE0F885
:100E9E00A3E0F9A3E0FAA3E0FBC312237D50030203
:100EAE000F65E47F587E02FDFC900322E0F8A3E07C
:100EBE00F9A3E0FAA3E0FB122260C006C00790027D
:100ECE00D9E075F002A4AEF0FBAA06D007D006C397
:100EDE00EF9BFFEE9AFEED9400FDEC9400FCEF24E8
:100EEE00F6FFEE34FFFEED34FFFDEC34FFFC900315
:100EFE00FCE0F8A3E0F9A3E0FAA3E0FBD312237D14
:100F0E00405EE47F587E02FDFC900322E0F8A3E0F1
:100F1E00F9A3E0FAA3E0FB122260C0079002D9E029
:100F2E00FBD007C3EF9BFFEE9400FEED9400FDECAB
:100F3E009400FCEF24F6FFEE34FFFEED34FFFDECE3
:100F4E0034FFFC9003FCE0F8A3E0F9A3E0FAA3E081
:100F5E00FBC312237D5009D2839002CF7401800F00
:100F6E009002CFE06003E4A3F0C283E49002CFF0DE
:100F7E00900320F0E47F587E02FDFC900322E0F8FF
:100F8E00A3E0F9A3E0FAA3E0FB122260C006C007BB
:100F9E009002D9E075F002A4AEF0FBAA06D007D0FD
:100FAE0006C3EF9BFFEE9AFEED9400FDEC9400FC61
:100FBE00EF24F6FFEE34FFFEED34FFFDEC34FFFCC4
:100FCE009003FCE0F8A3E0F9A3E0FAA3E0FBD31250
:100FDE00237D5030E47F587E02FDFC900322E0F822
:100FEE00A3E0F9A3E0FAA3E0FB1222609003FC1247
:100FFE002430E4900010F0900404F07B017A027922
:10100E00B1126EA2900334E0604790024FE060414F
:10101E0090028DE06008147038126E468033126FA5
:10102E006B802EC204E490024FF0900010F07B0112
:10103E007A0279B1126EA29002CFE06003E4A3F0BF
:10104E00C283E49002CFF0900320F0C2979003FA8F
:10105E00F0126F5290033EE0701790023FE0B40220
:10106E00047F02800990023FE0B401057F01125F08
:02107E001B2233
:10655E0090033EE0600302007E20030ED203123948
:10656E006D126B1BD2000F126B1F121A2190045268
:10657E00E0600D147011D2B09003FB7401F080072F
:10658E00C2B0E49003FBF090023FE0B402047F023D
:0D659E00800790023FE07004FF125F1B2297
:1025CA0090033EE06003022861300303022691D2A1
:1025DA000390023FE0702790033DE06005E4FDFCB4
:1025EA00806C900440E075F008A42426F582E43457
:1025FA0003F583A3A3E0FEA3E0FDAC06805090029E
:10260A003FE0B4011C900440E075F008A42426F5CC
:10261A0082E43403F583A3A3E0FEA3E0FDAC0680C5
:10262A002D90023FE06402702A90033DE06005E4C9
:10263A00FDFC801A900440E075F008A42426F58277
:10264A00E43403F583A3A3E0FEA3E0FDAC067F0117
:10265A00126868900440E075F008A42422F582E428
:10266A003403F58312685D126B1BD2000F126B1FC5
:10267A00126E96E4900251F090024704F0E4900240
:10268A00A2F09002AC04F07B017A02792B7FF47EEF
:10269A0001125B00501D900423E0600214F09002C6
:1026AA0047E06401F0FE900251E0FFEE24FF920041
:1026BA00126B1FE4FF126A42503E900251E0FFD2B1
:1026CA0000126B1F900251E06401F090023FE0702B
:1026DA000F90033DE06009900251E0B40102E4F07A
:1026EA00900251E0FFC200126B1F126E9CE490022E
:1026FA0047F0900423740CF07F02126F0440101FFD
:10270A00126F04400AE49002A2F09002AC04F09026
:10271A000440E075F008A42422F9740335F0FA7B2A
:10272A0001900251E075F004A429F9EA35F0FA9013
:10273A000440E025E025E024CCF582E43403F58367
:10274A00C083C082900251E0D082D08375F0021219
:10275A00246DE0FEA3E0FFE4FCFDC004C005C00652
:10276A00C007900440E025E025E024D8F582E4344F
:10277A0003F583C083C082900251E0D082D0837572
:10278A00F00212246DE0FEA3E0FFE490053E12245D
:10279A00309005427402F0A314F0C2009002ACE03B
:1027AA00900544F0D007D006D005D0041237464031
:1027BA00030228439002A2E004F0B414089002AC89
:1027CA00740AF0800D9002A2E0B428069002AC745C
:1027DA0019F090023FE0701490033DE0600E900201
:1027EA0051E0B40107E4FDFC7F01802F900440E032
:1027FA0075F008A42422F582E43403F583C083C06B
:10280A0082900251E0FBD082D08375F00412246DCD
:10281A00A3A3E0FEA3E0FDAC06AF03126868900232
:10282A0047E0701204F0900251E0FF900247E02462
:10283A00FF9200126B1F126E9690023FE05401FF46
:10284A00900440E06F6004EFF0C203900423E0605C
:10285A0003022A1D022A06200344D20390033DE004
:10286A006005E4FDFC800C900326A3A3E0FEA3E030
:10287A00FDAC067F0112686890032212685D126B34
:10288A001BD2000F126B1F126E96E4900251F09049
:10289A00024704F0E49002A2F09002AC04F07B013B
:1028AA007A02792B7FF47E01125B00501D9004237B
:1028BA00E0600214F0900247E06401F0FE900251D9
:1028CA00E0FFEE24FF9200126B1FE4FF126A4250EF
:1028DA0038900251E0FFD200126B1F900251E0645F
:1028EA0001F090033DE06009900251E0B40102E476
:1028FA00F0900251E0FFC200126B1F126E9CE4902E
:10290A000247F0900423740CF07F02126F04401007
:10291A001F126F04400AE49002A2F09002AC04F085
:10292A00900251E075F004A42422F9740335F0FAF8
:10293A007B01E025E024CCF582E43403F583E0FE54
:10294A00A3E0FFE4FCFDC004C005C006C007900276
:10295A0051E025E024D8F582E43403F583E0FEA3B0
:10296A00E0FFE490053E1224309005427402F0A381
:10297A0014F0C2009002ACE0900544F0D007D006F3
:10298A00D005D004123746506D9002A2E004F0B48C
:10299A0014089002AC740AF0800D9002A2E0B428E8
:1029AA00069002AC7419F090033DE0600E9002515B
:1029BA00E0B40107E4FDFC7F01801D900251E0FBB9
:1029CA0025E025E02422F582E43403F583A3A3E07D
:1029DA00FEA3E0FDAC06AF03126868900247E07000
:1029EA001204F0900251E0FF900247E024FF9200A7
:1029FA00126B1F126E96900423E07017D200FF121A
:102A0A006B1FD2000F126B1F90023FE0FF125F1B79
:042A1A0012443F2201
:093B9400FF126172900251E0FF82
:103B9D00EF147003023C47147003023D1B147003B5
:103BAD00023CE9146079147003023CB624056003ED
:103BBD00023D5190023FE0640170347BFF7A4B79F6
:103BCD0061FF126386E47F01FEFDFC900014E0F8B6
:103BDD00A3E0F9A3E0FAA3E0FBC312237D7BFF7002
:103BED00077A4B7965023D4C7A4B7969023D4C7AE7
:103BFD004B796D126382E47F01FEFDFC900014E0B1
:103C0D00F8A3E0F9A3E0FAA3E0FBC312237D7BFF49
:103C1D0070067A4B796580047A4B7969023D4C7A4E
:103C2D004B7971126382900014A3A3E0FEA3E0FD13
:103C3D00AC067F011252B9023D5190023FE0640182
:103C4D0070337BFF7A4B7975FF126386E47F01FE3B
:103C5D00FDFC900014E0F8A3E0F9A3E0FAA3E0FB6B
:103C6D00C312237D7BFF70067A4B797980047A4BE2
:103C7D00792C023D4C7BFF7A4B797DE4FF126386F4
:103C8D00E47F01FEFDFC900014E0F8A3E0F9A3E051
:103C9D00FAA3E0FBC312237D7BFF70067A4B797983
:103CAD0080047A4B792C023D4C7BFF7A4B7981E471
:103CBD00FF126386E47F01FEFDFC900014E0F8A383
:103CCD00E0F9A3E0FAA3E0FBC312237D7BFF7006AE
:103CDD007A4B797980047A4B792C80637BFF7A4B10
:103CED007985E4FF126386E4FFFEFDFC900014E08D
:103CFD00F8A3E0F9A3E0FAA3E0FBC312237D7BFF59
:103D0D0070067A4B798980047A4B798D80317BFFEF
:103D1D007A4B7991E4FF126386E47F01FEFDFC90FE
